{
  "contractName": "AddressValidation",
  "abi": [
    {
      "constant": true,
      "inputs": [],
      "name": "name",
      "outputs": [
        {
          "name": "",
          "type": "string"
        }
      ],
      "payable": false,
      "stateMutability": "view",
      "type": "function"
    },
    {
      "constant": true,
      "inputs": [
        {
          "name": "",
          "type": "address"
        }
      ],
      "name": "keyValidations",
      "outputs": [
        {
          "name": "",
          "type": "bytes32"
        }
      ],
      "payable": false,
      "stateMutability": "view",
      "type": "function"
    },
    {
      "constant": false,
      "inputs": [
        {
          "name": "_message",
          "type": "bytes32"
        }
      ],
      "name": "validateKey",
      "outputs": [],
      "payable": false,
      "stateMutability": "nonpayable",
      "type": "function"
    },
    {
      "anonymous": false,
      "inputs": [
        {
          "indexed": true,
          "name": "account",
          "type": "address"
        },
        {
          "indexed": true,
          "name": "message",
          "type": "bytes32"
        }
      ],
      "name": "ValidateKey",
      "type": "event"
    }
  ],
  "bytecode": "0x60606040526040805190810160405280601181526020017f4164647265737356616c69646174696f6e0000000000000000000000000000008152506000908051906020019061004f929190610060565b50341561005b57600080fd5b610105565b828054600181600116156101000203166002900490600052602060002090601f016020900481019282601f106100a157805160ff19168380011785556100cf565b828001600101855582156100cf579182015b828111156100ce5782518255916020019190600101906100b3565b5b5090506100dc91906100e0565b5090565b61010291905b808211156100fe5760008160009055506001016100e6565b5090565b90565b6102db806101146000396000f300606060405260043610610057576000357c0100000000000000000000000000000000000000000000000000000000900463ffffffff16806306fdde031461005c578063274b1615146100ea5780635c7c49c91461013f575b600080fd5b341561006757600080fd5b61006f610166565b6040518080602001828103825283818151815260200191508051906020019080838360005b838110156100af578082015181840152602081019050610094565b50505050905090810190601f1680156100dc5780820380516001836020036101000a031916815260200191505b509250505060405180910390f35b34156100f557600080fd5b610121600480803573ffffffffffffffffffffffffffffffffffffffff16906020019091905050610204565b60405180826000191660001916815260200191505060405180910390f35b341561014a57600080fd5b61016460048080356000191690602001909190505061021c565b005b60008054600181600116156101000203166002900480601f0160208091040260200160405190810160405280929190818152602001828054600181600116156101000203166002900480156101fc5780601f106101d1576101008083540402835291602001916101fc565b820191906000526020600020905b8154815290600101906020018083116101df57829003601f168201915b505050505081565b60016020528060005260406000206000915090505481565b80600160003373ffffffffffffffffffffffffffffffffffffffff1673ffffffffffffffffffffffffffffffffffffffff168152602001908152602001600020816000191690555080600019163373ffffffffffffffffffffffffffffffffffffffff167f0a2fd551a85297f946873cfacfb6a22fc0a8abb13115fcca4146febe17414c4760405160405180910390a3505600a165627a7a7230582036385d88ace233d9ce3dc6766c009e6cbe3689d6c6d84a408839db5c3ce719380029",
  "source": "pragma solidity ^0.4.17;\n\ncontract AddressValidation {\n    string public name = \"AddressValidation\";\n    mapping (address => bytes32) public keyValidations;\n    event ValidateKey(address indexed account, bytes32 indexed message);\n\n    function validateKey(bytes32 _message) public {\n        keyValidations[msg.sender] = _message;\n        ValidateKey(msg.sender, _message);\n    }\n}",
  "sourcePath": "/Users/benjamin/trusttoken/trueUSD/contracts/AddressValidation.sol",
  "compiler": {
    "name": "solc",
    "version": "0.4.18+commit.9cf6e910.Emscripten.clang"
  },
  "schemaVersion": "1.0.1",
  "updatedAt": "2018-01-09T23:16:17.748Z"
}