{
  "contractName": "MultiOwn",
  "abi": [
    {
      "constant": true,
      "inputs": [
        {
          "name": "",
          "type": "uint256"
        }
      ],
      "name": "proposals",
      "outputs": [
        {
          "name": "hasCompleted",
          "type": "bool"
        }
      ],
      "payable": false,
      "stateMutability": "view",
      "type": "function"
    },
    {
      "constant": true,
      "inputs": [
        {
          "name": "",
          "type": "uint256"
        }
      ],
      "name": "owners",
      "outputs": [
        {
          "name": "",
          "type": "address"
        }
      ],
      "payable": false,
      "stateMutability": "view",
      "type": "function"
    },
    {
      "constant": false,
      "inputs": [
        {
          "name": "_proposalId",
          "type": "uint256"
        },
        {
          "name": "_vote",
          "type": "bool"
        }
      ],
      "name": "voteOnProposal",
      "outputs": [],
      "payable": false,
      "stateMutability": "nonpayable",
      "type": "function"
    },
    {
      "constant": false,
      "inputs": [
        {
          "name": "_from",
          "type": "address"
        },
        {
          "name": "_to",
          "type": "address"
        }
      ],
      "name": "proposeChangeOwnership",
      "outputs": [],
      "payable": false,
      "stateMutability": "nonpayable",
      "type": "function"
    },
    {
      "constant": true,
      "inputs": [
        {
          "name": "",
          "type": "uint256"
        }
      ],
      "name": "changeOwnershipProposals",
      "outputs": [
        {
          "name": "from",
          "type": "address"
        },
        {
          "name": "to",
          "type": "address"
        }
      ],
      "payable": false,
      "stateMutability": "view",
      "type": "function"
    },
    {
      "constant": true,
      "inputs": [],
      "name": "requiredVoteCount",
      "outputs": [
        {
          "name": "",
          "type": "uint256"
        }
      ],
      "payable": false,
      "stateMutability": "view",
      "type": "function"
    },
    {
      "constant": true,
      "inputs": [],
      "name": "proposalCount",
      "outputs": [
        {
          "name": "",
          "type": "uint256"
        }
      ],
      "payable": false,
      "stateMutability": "view",
      "type": "function"
    },
    {
      "inputs": [
        {
          "name": "_addresses",
          "type": "address[]"
        }
      ],
      "payable": false,
      "stateMutability": "nonpayable",
      "type": "constructor"
    }
  ],
  "bytecode": "0x606060405260026003556000600455341561001957600080fd5b604051610b5c380380610b5c8339810160405280805182019190505060008090505b815181101561008457610077828281518110151561005557fe5b9060200190602002015161008b64010000000002610896176401000000009004565b808060010191505061003b565b505061018b565b6000805480600101828161009f919061013a565b9160005260206000209001600083909190916101000a81548173ffffffffffffffffffffffffffffffffffffffff021916908373ffffffffffffffffffffffffffffffffffffffff16021790555050600080549050600160008373ffffffffffffffffffffffffffffffffffffffff1673ffffffffffffffffffffffffffffffffffffffff1681526020019081526020016000208190555050565b815481835581811511610161578183600052602060002091820191016101609190610166565b5b505050565b61018891905b8082111561018457600081600090555060010161016c565b5090565b90565b6109c28061019a6000396000f300606060405260043610610083576000357c0100000000000000000000000000000000000000000000000000000000900463ffffffff168063013cf08b14610088578063025e7c27146100c35780631614665c146101265780633748615d14610154578063666735f9146101ac57806388f70c3c14610242578063da35c6641461026b575b600080fd5b341561009357600080fd5b6100a96004808035906020019091905050610294565b604051808215151515815260200191505060405180910390f35b34156100ce57600080fd5b6100e460048080359060200190919050506102bf565b604051808273ffffffffffffffffffffffffffffffffffffffff1673ffffffffffffffffffffffffffffffffffffffff16815260200191505060405180910390f35b341561013157600080fd5b610152600480803590602001909190803515159060200190919050506102fe565b005b341561015f57600080fd5b6101aa600480803573ffffffffffffffffffffffffffffffffffffffff1690602001909190803573ffffffffffffffffffffffffffffffffffffffff169060200190919050506103d5565b005b34156101b757600080fd5b6101cd60048080359060200190919050506104d4565b604051808373ffffffffffffffffffffffffffffffffffffffff1673ffffffffffffffffffffffffffffffffffffffff1681526020018273ffffffffffffffffffffffffffffffffffffffff1673ffffffffffffffffffffffffffffffffffffffff1681526020019250505060405180910390f35b341561024d57600080fd5b610255610538565b6040518082815260200191505060405180910390f35b341561027657600080fd5b61027e61053e565b6040518082815260200191505060405180910390f35b60026020528060005260406000206000915090508060010160009054906101000a900460ff16905081565b6000818154811015156102ce57fe5b90600052602060002090016000915054906101000a900473ffffffffffffffffffffffffffffffffffffffff1681565b6000600160003373ffffffffffffffffffffffffffffffffffffffff1673ffffffffffffffffffffffffffffffffffffffff168152602001908152602001600020541415151561034a57fe5b806002600084815260200190815260200160002060000160003373ffffffffffffffffffffffffffffffffffffffff1673ffffffffffffffffffffffffffffffffffffffff16815260200190815260200160002060006101000a81548160ff0219169083151502179055506003546103c183610544565b14156103d1576103d082610622565b5b5050565b60006004600081548092919060010191905055905060408051908101604052808473ffffffffffffffffffffffffffffffffffffffff1681526020018373ffffffffffffffffffffffffffffffffffffffff168152506005600083815260200190815260200160002060008201518160000160006101000a81548173ffffffffffffffffffffffffffffffffffffffff021916908373ffffffffffffffffffffffffffffffffffffffff16021790555060208201518160010160006101000a81548173ffffffffffffffffffffffffffffffffffffffff021916908373ffffffffffffffffffffffffffffffffffffffff160217905550905050505050565b60056020528060005260406000206000915090508060000160009054906101000a900473ffffffffffffffffffffffffffffffffffffffff16908060010160009054906101000a900473ffffffffffffffffffffffffffffffffffffffff16905082565b60035481565b60045481565b6000806000809150600190505b6000805490508110156106185760011515600260008681526020019081526020016000206000016000808481548110151561058857fe5b906000526020600020900160009054906101000a900473ffffffffffffffffffffffffffffffffffffffff1673ffffffffffffffffffffffffffffffffffffffff1673ffffffffffffffffffffffffffffffffffffffff16815260200190815260200160002060009054906101000a900460ff161515141561060b576001820191505b8080600101915050610551565b8192505050919050565b60006001905060006005600084815260200190815260200160002060010160009054906101000a900473ffffffffffffffffffffffffffffffffffffffff1673ffffffffffffffffffffffffffffffffffffffff1614151561068c57610687826106c3565b610691565b600090505b806002600084815260200190815260200160002060010160006101000a81548160ff0219169083151502179055505050565b6000806000806005600086815260200190815260200160002093508360000160009054906101000a900473ffffffffffffffffffffffffffffffffffffffff1692508360010160009054906101000a900473ffffffffffffffffffffffffffffffffffffffff169150600160008473ffffffffffffffffffffffffffffffffffffffff1673ffffffffffffffffffffffffffffffffffffffff1681526020019081526020016000205490506000600160008573ffffffffffffffffffffffffffffffffffffffff1673ffffffffffffffffffffffffffffffffffffffff16815260200190815260200160002081905550816000828154811015156107c357fe5b906000526020600020900160006101000a81548173ffffffffffffffffffffffffffffffffffffffff021916908373ffffffffffffffffffffffffffffffffffffffff160217905550600160008473ffffffffffffffffffffffffffffffffffffffff1673ffffffffffffffffffffffffffffffffffffffff16815260200190815260200160002054600160008473ffffffffffffffffffffffffffffffffffffffff1673ffffffffffffffffffffffffffffffffffffffff168152602001908152602001600020819055505050505050565b600080548060010182816108aa9190610945565b9160005260206000209001600083909190916101000a81548173ffffffffffffffffffffffffffffffffffffffff021916908373ffffffffffffffffffffffffffffffffffffffff16021790555050600080549050600160008373ffffffffffffffffffffffffffffffffffffffff1673ffffffffffffffffffffffffffffffffffffffff1681526020019081526020016000208190555050565b81548183558181151161096c5781836000526020600020918201910161096b9190610971565b5b505050565b61099391905b8082111561098f576000816000905550600101610977565b5090565b905600a165627a7a72305820dd39f83ad4ce56bbd1fedd2de5cb2fdcead93c44f42fe5ad301d733dbd97e5b30029",
  "source": "pragma solidity ^0.4.17;\n\ncontract MultiOwn {\n    struct Proposal {\n        mapping(address => bool) votes;\n        bool hasCompleted;\n    }\n    address[] public owners;\n    mapping(address => uint) ownersIndices; // starts from 1\n    mapping (uint => Proposal) public proposals;\n    uint public requiredVoteCount = 2;\n    uint public proposalCount = 0;\n\n    struct ChangeOwnershipProposal {\n        address from;\n        address to;\n    }\n    mapping (uint => ChangeOwnershipProposal) public changeOwnershipProposals;\n\n\n    function MultiOwn(address[] _addresses) public {\n        for (uint i = 0; i < _addresses.length; i++) {\n            addOwner(_addresses[i]);\n        }\n    }\n\n    // Transfer Ownership logic \n    function proposeChangeOwnership(address _from, address _to) public {\n        uint id = proposalCount++;\n        changeOwnershipProposals[id] = ChangeOwnershipProposal(_from, _to);\n    }\n\n    function changeOwnership(uint _proposalId) private {\n        var changeOwnershipProposal = changeOwnershipProposals[_proposalId];\n        var from = changeOwnershipProposal.from;\n        var to = changeOwnershipProposal.to;\n\n        uint previousIndex = ownersIndices[from];\n        ownersIndices[from] = 0;\n        owners[previousIndex] = to;\n        ownersIndices[to] = ownersIndices[from];\n    }\n\n    // Voting Logic\n    function voteOnProposal(uint _proposalId, bool _vote) public {\n        assert(ownersIndices[msg.sender] != 0);\n        proposals[_proposalId].votes[msg.sender] = _vote;\n        if (voteCountForProposal(_proposalId) == requiredVoteCount) {\n            completeProposal(_proposalId);\n        }\n    }\n\n    function voteCountForProposal(uint _proposalId) view private returns (uint) {\n        uint votes = 0;\n        for (uint id = 1; id < owners.length; id++) {\n            if (proposals[_proposalId].votes[owners[id]] == true) {\n                votes = votes + 1;\n            }\n        }\n        return votes;\n    }\n\n    function completeProposal(uint _proposalId) private {\n        var hasCompleted = true;\n        if (changeOwnershipProposals[_proposalId].to != 0) {\n            changeOwnership(_proposalId);\n        } else {\n            hasCompleted = false;\n        }\n        proposals[_proposalId].hasCompleted = hasCompleted;\n    }\n\n    // Utility methods\n    function addOwner(address _owner) private {\n        owners.push(_owner);\n        ownersIndices[_owner] = owners.length;\n    }\n}",
  "sourcePath": "/Users/ozziegooen/zentrust/trucoin/contracts/MultiOwn.sol",
  "compiler": {
    "name": "solc",
    "version": "0.4.18+commit.9cf6e910.Emscripten.clang"
  },
  "schemaVersion": "1.0.1",
  "updatedAt": "2017-12-25T23:59:06.005Z"
}