{
  "contractName": "MultiOwn",
  "abi": [
    {
      "constant": true,
      "inputs": [
        {
          "name": "",
          "type": "uint256"
        }
      ],
      "name": "proposals",
      "outputs": [
        {
          "name": "hasCompleted",
          "type": "bool"
        }
      ],
      "payable": false,
      "stateMutability": "view",
      "type": "function"
    },
    {
      "constant": true,
      "inputs": [
        {
          "name": "",
          "type": "uint256"
        }
      ],
      "name": "owners",
      "outputs": [
        {
          "name": "",
          "type": "address"
        }
      ],
      "payable": false,
      "stateMutability": "view",
      "type": "function"
    },
    {
      "constant": false,
      "inputs": [
        {
          "name": "_proposalId",
          "type": "uint256"
        },
        {
          "name": "_vote",
          "type": "bool"
        }
      ],
      "name": "voteOnProposal",
      "outputs": [],
      "payable": false,
      "stateMutability": "nonpayable",
      "type": "function"
    },
    {
      "constant": false,
      "inputs": [
        {
          "name": "_from",
          "type": "address"
        },
        {
          "name": "_to",
          "type": "address"
        }
      ],
      "name": "proposeChangeOwnership",
      "outputs": [
        {
          "name": "",
          "type": "uint256"
        }
      ],
      "payable": false,
      "stateMutability": "nonpayable",
      "type": "function"
    },
    {
      "constant": true,
      "inputs": [
        {
          "name": "",
          "type": "uint256"
        }
      ],
      "name": "changeOwnershipProposals",
      "outputs": [
        {
          "name": "from",
          "type": "address"
        },
        {
          "name": "to",
          "type": "address"
        }
      ],
      "payable": false,
      "stateMutability": "view",
      "type": "function"
    },
    {
      "constant": true,
      "inputs": [],
      "name": "requiredVoteCount",
      "outputs": [
        {
          "name": "",
          "type": "uint256"
        }
      ],
      "payable": false,
      "stateMutability": "view",
      "type": "function"
    },
    {
      "constant": true,
      "inputs": [
        {
          "name": "_proposalId",
          "type": "uint256"
        }
      ],
      "name": "voteCountForProposal",
      "outputs": [
        {
          "name": "",
          "type": "uint256"
        }
      ],
      "payable": false,
      "stateMutability": "view",
      "type": "function"
    },
    {
      "constant": true,
      "inputs": [
        {
          "name": "",
          "type": "address"
        }
      ],
      "name": "ownersIndices",
      "outputs": [
        {
          "name": "",
          "type": "uint256"
        }
      ],
      "payable": false,
      "stateMutability": "view",
      "type": "function"
    },
    {
      "constant": true,
      "inputs": [],
      "name": "proposalCount",
      "outputs": [
        {
          "name": "",
          "type": "uint256"
        }
      ],
      "payable": false,
      "stateMutability": "view",
      "type": "function"
    },
    {
      "inputs": [
        {
          "name": "_addresses",
          "type": "address[]"
        }
      ],
      "payable": false,
      "stateMutability": "nonpayable",
      "type": "constructor"
    }
  ],
  "bytecode": "0x606060405260006001556002600455341561001957600080fd5b604051610c6f380380610c6f8339810160405280805182019190505060008090505b815181101561008457610077828281518110151561005557fe5b9060200190602002015161008b640100000000026109a9176401000000009004565b808060010191505061003b565b505061018b565b6002805480600101828161009f919061013a565b9160005260206000209001600083909190916101000a81548173ffffffffffffffffffffffffffffffffffffffff021916908373ffffffffffffffffffffffffffffffffffffffff16021790555050600280549050600360008373ffffffffffffffffffffffffffffffffffffffff1673ffffffffffffffffffffffffffffffffffffffff1681526020019081526020016000208190555050565b815481835581811511610161578183600052602060002091820191016101609190610166565b5b505050565b61018891905b8082111561018457600081600090555060010161016c565b5090565b90565b610ad58061019a6000396000f300606060405260043610610099576000357c0100000000000000000000000000000000000000000000000000000000900463ffffffff168063013cf08b1461009e578063025e7c27146100d95780631614665c1461013c5780633748615d1461016a578063666735f9146101d657806388f70c3c1461026c578063bc65ab9114610295578063cc047a04146102cc578063da35c66414610319575b600080fd5b34156100a957600080fd5b6100bf6004808035906020019091905050610342565b604051808215151515815260200191505060405180910390f35b34156100e457600080fd5b6100fa600480803590602001909190505061036d565b604051808273ffffffffffffffffffffffffffffffffffffffff1673ffffffffffffffffffffffffffffffffffffffff16815260200191505060405180910390f35b341561014757600080fd5b610168600480803590602001909190803515159060200190919050506103ac565b005b341561017557600080fd5b6101c0600480803573ffffffffffffffffffffffffffffffffffffffff1690602001909190803573ffffffffffffffffffffffffffffffffffffffff16906020019091905050610482565b6040518082815260200191505060405180910390f35b34156101e157600080fd5b6101f760048080359060200190919050506105d0565b604051808373ffffffffffffffffffffffffffffffffffffffff1673ffffffffffffffffffffffffffffffffffffffff1681526020018273ffffffffffffffffffffffffffffffffffffffff1673ffffffffffffffffffffffffffffffffffffffff1681526020019250505060405180910390f35b341561027757600080fd5b61027f610634565b6040518082815260200191505060405180910390f35b34156102a057600080fd5b6102b6600480803590602001909190505061063a565b6040518082815260200191505060405180910390f35b34156102d757600080fd5b610303600480803573ffffffffffffffffffffffffffffffffffffffff16906020019091905050610718565b6040518082815260200191505060405180910390f35b341561032457600080fd5b61032c610730565b6040518082815260200191505060405180910390f35b60006020528060005260406000206000915090508060010160009054906101000a900460ff16905081565b60028181548110151561037c57fe5b90600052602060002090016000915054906101000a900473ffffffffffffffffffffffffffffffffffffffff1681565b6000600360003373ffffffffffffffffffffffffffffffffffffffff1673ffffffffffffffffffffffffffffffffffffffff16815260200190815260200160002054141515156103f857fe5b8060008084815260200190815260200160002060000160003373ffffffffffffffffffffffffffffffffffffffff1673ffffffffffffffffffffffffffffffffffffffff16815260200190815260200160002060006101000a81548160ff02191690831515021790555060045461046e8361063a565b141561047e5761047d82610736565b5b5050565b6000806000600360003373ffffffffffffffffffffffffffffffffffffffff1673ffffffffffffffffffffffffffffffffffffffff16815260200190815260200160002054141515156104d157fe5b6001805401600181905550600154905060408051908101604052808573ffffffffffffffffffffffffffffffffffffffff1681526020018473ffffffffffffffffffffffffffffffffffffffff168152506005600083815260200190815260200160002060008201518160000160006101000a81548173ffffffffffffffffffffffffffffffffffffffff021916908373ffffffffffffffffffffffffffffffffffffffff16021790555060208201518160010160006101000a81548173ffffffffffffffffffffffffffffffffffffffff021916908373ffffffffffffffffffffffffffffffffffffffff1602179055509050508091505092915050565b60056020528060005260406000206000915090508060000160009054906101000a900473ffffffffffffffffffffffffffffffffffffffff16908060010160009054906101000a900473ffffffffffffffffffffffffffffffffffffffff16905082565b60045481565b6000806000809150600190505b60028054905081101561070e5760011515600080868152602001908152602001600020600001600060028481548110151561067e57fe5b906000526020600020900160009054906101000a900473ffffffffffffffffffffffffffffffffffffffff1673ffffffffffffffffffffffffffffffffffffffff1673ffffffffffffffffffffffffffffffffffffffff16815260200190815260200160002060009054906101000a900460ff1615151415610701576001820191505b8080600101915050610647565b8192505050919050565b60036020528060005260406000206000915090505481565b60015481565b60006001905060006005600084815260200190815260200160002060010160009054906101000a900473ffffffffffffffffffffffffffffffffffffffff1673ffffffffffffffffffffffffffffffffffffffff161415156107a05761079b826107d6565b6107a5565b600090505b8060008084815260200190815260200160002060010160006101000a81548160ff0219169083151502179055505050565b6000806000806005600086815260200190815260200160002093508360000160009054906101000a900473ffffffffffffffffffffffffffffffffffffffff1692508360010160009054906101000a900473ffffffffffffffffffffffffffffffffffffffff169150600360008473ffffffffffffffffffffffffffffffffffffffff1673ffffffffffffffffffffffffffffffffffffffff1681526020019081526020016000205490506000600360008573ffffffffffffffffffffffffffffffffffffffff1673ffffffffffffffffffffffffffffffffffffffff16815260200190815260200160002081905550816002828154811015156108d657fe5b906000526020600020900160006101000a81548173ffffffffffffffffffffffffffffffffffffffff021916908373ffffffffffffffffffffffffffffffffffffffff160217905550600360008473ffffffffffffffffffffffffffffffffffffffff1673ffffffffffffffffffffffffffffffffffffffff16815260200190815260200160002054600360008473ffffffffffffffffffffffffffffffffffffffff1673ffffffffffffffffffffffffffffffffffffffff168152602001908152602001600020819055505050505050565b600280548060010182816109bd9190610a58565b9160005260206000209001600083909190916101000a81548173ffffffffffffffffffffffffffffffffffffffff021916908373ffffffffffffffffffffffffffffffffffffffff16021790555050600280549050600360008373ffffffffffffffffffffffffffffffffffffffff1673ffffffffffffffffffffffffffffffffffffffff1681526020019081526020016000208190555050565b815481835581811511610a7f57818360005260206000209182019101610a7e9190610a84565b5b505050565b610aa691905b80821115610aa2576000816000905550600101610a8a565b5090565b905600a165627a7a7230582026af3ec8b2d9436fdd21c330c7791fcd696476ce534939fad22bf5219977fc700029",
  "source": "pragma solidity ^0.4.17;\n\ncontract MultiOwn {\n    struct Proposal {\n        mapping(address => bool) votes;\n        bool hasCompleted;\n    }\n    mapping (uint => Proposal) public proposals;\n    uint public proposalCount = 0;\n\n    address[] public owners;\n    mapping(address => uint) public ownersIndices; // starts from 1\n\n    uint public requiredVoteCount = 2;\n\n    struct ChangeOwnershipProposal {\n        address from;\n        address to;\n    }\n    mapping (uint => ChangeOwnershipProposal) public changeOwnershipProposals;\n\n\n    function MultiOwn(address[] _addresses) public {\n        for (uint i = 0; i < _addresses.length; i++) {\n            addOwner(_addresses[i]);\n        }\n    }\n\n    // Transfer Ownership logic \n    function proposeChangeOwnership(address _from, address _to) public returns (uint) {\n        assert(ownersIndices[msg.sender] != 0);\n        proposalCount = proposalCount + 1;\n        uint id = proposalCount;\n        changeOwnershipProposals[id] = ChangeOwnershipProposal(_from, _to);\n        return id;\n    }\n\n    function changeOwnership(uint _proposalId) private {\n        var changeOwnershipProposal = changeOwnershipProposals[_proposalId];\n        var from = changeOwnershipProposal.from;\n        var to = changeOwnershipProposal.to;\n\n        uint previousIndex = ownersIndices[from];\n        ownersIndices[from] = 0;\n        owners[previousIndex] = to;\n        ownersIndices[to] = ownersIndices[from];\n    }\n\n    // Voting Logic\n    function voteOnProposal(uint _proposalId, bool _vote) public {\n        assert(ownersIndices[msg.sender] != 0);\n        proposals[_proposalId].votes[msg.sender] = _vote;\n        if (voteCountForProposal(_proposalId) == requiredVoteCount) {\n            completeProposal(_proposalId);\n        }\n    }\n\n    function voteCountForProposal(uint _proposalId) view public returns (uint) {\n        uint votes = 0;\n        for (uint id = 1; id < owners.length; id++) {\n            if (proposals[_proposalId].votes[owners[id]] == true) {\n                votes = votes + 1;\n            }\n        }\n        return votes;\n    }\n\n    function completeProposal(uint _proposalId) private {\n        var hasCompleted = true;\n        if (changeOwnershipProposals[_proposalId].to != 0) {\n            changeOwnership(_proposalId);\n        } else {\n            hasCompleted = false;\n        }\n        proposals[_proposalId].hasCompleted = hasCompleted;\n    }\n\n    // Utility methods\n    function addOwner(address _owner) private {\n        owners.push(_owner);\n        ownersIndices[_owner] = owners.length;\n    }\n}",
  "sourcePath": "/Users/ozziegooen/zentrust/trucoin/contracts/MultiOwn.sol",
  "compiler": {
    "name": "solc",
    "version": "0.4.18+commit.9cf6e910.Emscripten.clang"
  },
  "schemaVersion": "1.0.1",
  "updatedAt": "2017-12-26T01:16:30.469Z"
}