{
  "contractName": "TimeLockedAdmin",
  "abi": [
    {
      "constant": false,
      "inputs": [
        {
          "name": "token",
          "type": "address"
        }
      ],
      "name": "reclaimToken",
      "outputs": [],
      "payable": false,
      "stateMutability": "nonpayable",
      "type": "function"
    },
    {
      "constant": true,
      "inputs": [],
      "name": "child",
      "outputs": [
        {
          "name": "",
          "type": "address"
        }
      ],
      "payable": false,
      "stateMutability": "view",
      "type": "function"
    },
    {
      "constant": false,
      "inputs": [],
      "name": "finalizeChangeBurnBounds",
      "outputs": [],
      "payable": false,
      "stateMutability": "nonpayable",
      "type": "function"
    },
    {
      "constant": false,
      "inputs": [
        {
          "name": "newMin",
          "type": "uint256"
        },
        {
          "name": "newMax",
          "type": "uint256"
        }
      ],
      "name": "requestChangeBurnBounds",
      "outputs": [],
      "payable": false,
      "stateMutability": "nonpayable",
      "type": "function"
    },
    {
      "constant": false,
      "inputs": [
        {
          "name": "_to",
          "type": "address"
        },
        {
          "name": "_amount",
          "type": "uint256"
        }
      ],
      "name": "requestMint",
      "outputs": [],
      "payable": false,
      "stateMutability": "nonpayable",
      "type": "function"
    },
    {
      "constant": true,
      "inputs": [],
      "name": "transferOwnershipOperation",
      "outputs": [
        {
          "name": "newOwner",
          "type": "address"
        },
        {
          "name": "admin",
          "type": "address"
        },
        {
          "name": "deferBlock",
          "type": "uint256"
        }
      ],
      "payable": false,
      "stateMutability": "view",
      "type": "function"
    },
    {
      "constant": false,
      "inputs": [
        {
          "name": "newAdmin",
          "type": "address"
        }
      ],
      "name": "transferAdminship",
      "outputs": [],
      "payable": false,
      "stateMutability": "nonpayable",
      "type": "function"
    },
    {
      "constant": true,
      "inputs": [],
      "name": "changeBurnBoundsOperation",
      "outputs": [
        {
          "name": "newMin",
          "type": "uint256"
        },
        {
          "name": "newMax",
          "type": "uint256"
        },
        {
          "name": "admin",
          "type": "address"
        },
        {
          "name": "deferBlock",
          "type": "uint256"
        }
      ],
      "payable": false,
      "stateMutability": "view",
      "type": "function"
    },
    {
      "constant": true,
      "inputs": [],
      "name": "blocksDelay",
      "outputs": [
        {
          "name": "",
          "type": "uint256"
        }
      ],
      "payable": false,
      "stateMutability": "view",
      "type": "function"
    },
    {
      "constant": true,
      "inputs": [],
      "name": "owner",
      "outputs": [
        {
          "name": "",
          "type": "address"
        }
      ],
      "payable": false,
      "stateMutability": "view",
      "type": "function"
    },
    {
      "constant": false,
      "inputs": [
        {
          "name": "index",
          "type": "uint256"
        }
      ],
      "name": "finalizeMint",
      "outputs": [],
      "payable": false,
      "stateMutability": "nonpayable",
      "type": "function"
    },
    {
      "constant": false,
      "inputs": [],
      "name": "finalizeTransferOwnership",
      "outputs": [],
      "payable": false,
      "stateMutability": "nonpayable",
      "type": "function"
    },
    {
      "constant": false,
      "inputs": [
        {
          "name": "newOwner",
          "type": "address"
        }
      ],
      "name": "requestTransferOwnership",
      "outputs": [],
      "payable": false,
      "stateMutability": "nonpayable",
      "type": "function"
    },
    {
      "constant": false,
      "inputs": [],
      "name": "reclaimEther",
      "outputs": [],
      "payable": false,
      "stateMutability": "nonpayable",
      "type": "function"
    },
    {
      "constant": false,
      "inputs": [
        {
          "name": "from_",
          "type": "address"
        },
        {
          "name": "value_",
          "type": "uint256"
        },
        {
          "name": "data_",
          "type": "bytes"
        }
      ],
      "name": "tokenFallback",
      "outputs": [],
      "payable": false,
      "stateMutability": "nonpayable",
      "type": "function"
    },
    {
      "constant": true,
      "inputs": [
        {
          "name": "",
          "type": "uint256"
        }
      ],
      "name": "mintOperations",
      "outputs": [
        {
          "name": "to",
          "type": "address"
        },
        {
          "name": "amount",
          "type": "uint256"
        },
        {
          "name": "admin",
          "type": "address"
        },
        {
          "name": "deferBlock",
          "type": "uint256"
        }
      ],
      "payable": false,
      "stateMutability": "view",
      "type": "function"
    },
    {
      "constant": false,
      "inputs": [
        {
          "name": "newOwner",
          "type": "address"
        }
      ],
      "name": "transferOwnership",
      "outputs": [],
      "payable": false,
      "stateMutability": "nonpayable",
      "type": "function"
    },
    {
      "constant": true,
      "inputs": [],
      "name": "admin",
      "outputs": [
        {
          "name": "",
          "type": "address"
        }
      ],
      "payable": false,
      "stateMutability": "view",
      "type": "function"
    },
    {
      "inputs": [
        {
          "name": "_child",
          "type": "address"
        }
      ],
      "payable": false,
      "stateMutability": "nonpayable",
      "type": "constructor"
    },
    {
      "payable": false,
      "stateMutability": "nonpayable",
      "type": "fallback"
    },
    {
      "anonymous": false,
      "inputs": [
        {
          "components": [
            {
              "name": "to",
              "type": "address"
            },
            {
              "name": "amount",
              "type": "uint256"
            },
            {
              "name": "admin",
              "type": "address"
            },
            {
              "name": "deferBlock",
              "type": "uint256"
            }
          ],
          "indexed": false,
          "name": "op",
          "type": "tuple"
        },
        {
          "indexed": false,
          "name": "opIndex",
          "type": "uint256"
        }
      ],
      "name": "MintOperationEvent",
      "type": "event"
    },
    {
      "anonymous": false,
      "inputs": [
        {
          "components": [
            {
              "name": "newOwner",
              "type": "address"
            },
            {
              "name": "admin",
              "type": "address"
            },
            {
              "name": "deferBlock",
              "type": "uint256"
            }
          ],
          "indexed": false,
          "name": "op",
          "type": "tuple"
        }
      ],
      "name": "TransferOwnershipOperationEvent",
      "type": "event"
    },
    {
      "anonymous": false,
      "inputs": [
        {
          "components": [
            {
              "name": "newMin",
              "type": "uint256"
            },
            {
              "name": "newMax",
              "type": "uint256"
            },
            {
              "name": "admin",
              "type": "address"
            },
            {
              "name": "deferBlock",
              "type": "uint256"
            }
          ],
          "indexed": false,
          "name": "op",
          "type": "tuple"
        }
      ],
      "name": "ChangeBurnBoundsOperationEvent",
      "type": "event"
    },
    {
      "anonymous": false,
      "inputs": [
        {
          "indexed": true,
          "name": "previousAdmin",
          "type": "address"
        },
        {
          "indexed": true,
          "name": "newAdmin",
          "type": "address"
        }
      ],
      "name": "AdminshipTransferred",
      "type": "event"
    },
    {
      "anonymous": false,
      "inputs": [
        {
          "indexed": true,
          "name": "previousOwner",
          "type": "address"
        },
        {
          "indexed": true,
          "name": "newOwner",
          "type": "address"
        }
      ],
      "name": "OwnershipTransferred",
      "type": "event"
    }
  ],
  "bytecode": "0x6060604052341561000f57600080fd5b604051602080611be383398101604052808051906020019091905050336000806101000a81548173ffffffffffffffffffffffffffffffffffffffff021916908373ffffffffffffffffffffffffffffffffffffffff16021790555060003414151561007a57600080fd5b80600260006101000a81548173ffffffffffffffffffffffffffffffffffffffff021916908373ffffffffffffffffffffffffffffffffffffffff16021790555050611b18806100cb6000396000f3006060604052600436106100fc576000357c0100000000000000000000000000000000000000000000000000000000900463ffffffff16806317ffc32014610109578063237b5e9614610142578063267822c1146101975780632692281d146101ac57806331a02bce146101d85780634955a79e1461021a5780635be7cc16146102a95780636a7245ef146102e25780638a6897841461034c5780638da5cb5b146103755780638e3af93f146103ca5780639d1d6b8a146103ed5780639d6fa618146104025780639f727c271461043b578063c0ee0b8a14610450578063ec38e855146104a6578063f2fde38b1461054a578063f851a44014610583575b341561010757600080fd5b005b341561011457600080fd5b610140600480803573ffffffffffffffffffffffffffffffffffffffff169060200190919050506105d8565b005b341561014d57600080fd5b610155610745565b604051808273ffffffffffffffffffffffffffffffffffffffff1673ffffffffffffffffffffffffffffffffffffffff16815260200191505060405180910390f35b34156101a257600080fd5b6101aa61076b565b005b34156101b757600080fd5b6101d66004808035906020019091908035906020019091905050610963565b005b34156101e357600080fd5b610218600480803573ffffffffffffffffffffffffffffffffffffffff16906020019091908035906020019091905050610ace565b005b341561022557600080fd5b61022d610cc0565b604051808473ffffffffffffffffffffffffffffffffffffffff1673ffffffffffffffffffffffffffffffffffffffff1681526020018373ffffffffffffffffffffffffffffffffffffffff1673ffffffffffffffffffffffffffffffffffffffff168152602001828152602001935050505060405180910390f35b34156102b457600080fd5b6102e0600480803573ffffffffffffffffffffffffffffffffffffffff16906020019091905050610d18565b005b34156102ed57600080fd5b6102f5610e33565b604051808581526020018481526020018373ffffffffffffffffffffffffffffffffffffffff1673ffffffffffffffffffffffffffffffffffffffff16815260200182815260200194505050505060405180910390f35b341561035757600080fd5b61035f610e71565b6040518082815260200191505060405180910390f35b341561038057600080fd5b610388610e77565b604051808273ffffffffffffffffffffffffffffffffffffffff1673ffffffffffffffffffffffffffffffffffffffff16815260200191505060405180910390f35b34156103d557600080fd5b6103eb6004808035906020019091905050610e9c565b005b34156103f857600080fd5b6104006111be565b005b341561040d57600080fd5b610439600480803573ffffffffffffffffffffffffffffffffffffffff1690602001909190505061140a565b005b341561044657600080fd5b61044e6115b7565b005b341561045b57600080fd5b6104a4600480803573ffffffffffffffffffffffffffffffffffffffff169060200190919080359060200190919080359060200190820180359060200191909192905050611689565b005b34156104b157600080fd5b6104c7600480803590602001909190505061168e565b604051808573ffffffffffffffffffffffffffffffffffffffff1673ffffffffffffffffffffffffffffffffffffffff1681526020018481526020018373ffffffffffffffffffffffffffffffffffffffff1673ffffffffffffffffffffffffffffffffffffffff16815260200182815260200194505050505060405180910390f35b341561055557600080fd5b610581600480803573ffffffffffffffffffffffffffffffffffffffff1690602001909190505061170d565b005b341561058e57600080fd5b610596611862565b604051808273ffffffffffffffffffffffffffffffffffffffff1673ffffffffffffffffffffffffffffffffffffffff16815260200191505060405180910390f35b60008060009054906101000a900473ffffffffffffffffffffffffffffffffffffffff1673ffffffffffffffffffffffffffffffffffffffff163373ffffffffffffffffffffffffffffffffffffffff1614151561063557600080fd5b8173ffffffffffffffffffffffffffffffffffffffff166370a08231306000604051602001526040518263ffffffff167c0100000000000000000000000000000000000000000000000000000000028152600401808273ffffffffffffffffffffffffffffffffffffffff1673ffffffffffffffffffffffffffffffffffffffff168152602001915050602060405180830381600087803b15156106d857600080fd5b6102c65a03f115156106e957600080fd5b5050506040518051905090506107416000809054906101000a900473ffffffffffffffffffffffffffffffffffffffff16828473ffffffffffffffffffffffffffffffffffffffff166118889092919063ffffffff16565b5050565b600260009054906101000a900473ffffffffffffffffffffffffffffffffffffffff1681565b600080600160009054906101000a900473ffffffffffffffffffffffffffffffffffffffff1673ffffffffffffffffffffffffffffffffffffffff163373ffffffffffffffffffffffffffffffffffffffff161415156107ca57600080fd5b600160009054906101000a900473ffffffffffffffffffffffffffffffffffffffff1673ffffffffffffffffffffffffffffffffffffffff16600760020160009054906101000a900473ffffffffffffffffffffffffffffffffffffffff1673ffffffffffffffffffffffffffffffffffffffff1614151561084b57600080fd5b436007600301541115151561085f57600080fd5b60076000015491506007600101549050600760008082016000905560018201600090556002820160006101000a81549073ffffffffffffffffffffffffffffffffffffffff021916905560038201600090555050600260009054906101000a900473ffffffffffffffffffffffffffffffffffffffff1673ffffffffffffffffffffffffffffffffffffffff166370df42e183836040518363ffffffff167c01000000000000000000000000000000000000000000000000000000000281526004018083815260200182815260200192505050600060405180830381600087803b151561094b57600080fd5b6102c65a03f1151561095c57600080fd5b5050505050565b61096b61195b565b600160009054906101000a900473ffffffffffffffffffffffffffffffffffffffff1673ffffffffffffffffffffffffffffffffffffffff163373ffffffffffffffffffffffffffffffffffffffff161415156109c757600080fd5b608060405190810160405280848152602001838152602001600160009054906101000a900473ffffffffffffffffffffffffffffffffffffffff1673ffffffffffffffffffffffffffffffffffffffff168152602001611680430181525090507f03051e39c12421e9f3b4c6bf2ef6ef14aff636a37ee698eac3e5d84a7d392300816040518082815260200191505060405180910390a1806007600082015181600001556020820151816001015560408201518160020160006101000a81548173ffffffffffffffffffffffffffffffffffffffff021916908373ffffffffffffffffffffffffffffffffffffffff16021790555060608201518160030155905050505050565b610ad661199a565b600160009054906101000a900473ffffffffffffffffffffffffffffffffffffffff1673ffffffffffffffffffffffffffffffffffffffff163373ffffffffffffffffffffffffffffffffffffffff16141515610b3257600080fd5b6080604051908101604052808473ffffffffffffffffffffffffffffffffffffffff168152602001838152602001600160009054906101000a900473ffffffffffffffffffffffffffffffffffffffff1673ffffffffffffffffffffffffffffffffffffffff168152602001611680430181525090507f1d071dfe5c24be4bb56ca52a7ff646f8c51e5917c9747834c1187c954238b60781600380549050604051808381526020018281526020019250505060405180910390a160038054806001018281610c0091906119ef565b9160005260206000209060040201600083909190915060008201518160000160006101000a81548173ffffffffffffffffffffffffffffffffffffffff021916908373ffffffffffffffffffffffffffffffffffffffff1602179055506020820151816001015560408201518160020160006101000a81548173ffffffffffffffffffffffffffffffffffffffff021916908373ffffffffffffffffffffffffffffffffffffffff16021790555060608201518160030155505050505050565b60048060000160009054906101000a900473ffffffffffffffffffffffffffffffffffffffff16908060010160009054906101000a900473ffffffffffffffffffffffffffffffffffffffff16908060020154905083565b6000809054906101000a900473ffffffffffffffffffffffffffffffffffffffff1673ffffffffffffffffffffffffffffffffffffffff163373ffffffffffffffffffffffffffffffffffffffff16141515610d7357600080fd5b8073ffffffffffffffffffffffffffffffffffffffff16600160009054906101000a900473ffffffffffffffffffffffffffffffffffffffff1673ffffffffffffffffffffffffffffffffffffffff167f2931ebb3d190545dcf6801c37aa686b74f2e1000e753d0fac6e471a2aa5a621360405160405180910390a380600160006101000a81548173ffffffffffffffffffffffffffffffffffffffff021916908373ffffffffffffffffffffffffffffffffffffffff16021790555050565b60078060000154908060010154908060020160009054906101000a900473ffffffffffffffffffffffffffffffffffffffff16908060030154905084565b61168081565b6000809054906101000a900473ffffffffffffffffffffffffffffffffffffffff1681565b610ea461199a565b600080600384815481101515610eb657fe5b9060005260206000209060040201608060405190810160405290816000820160009054906101000a900473ffffffffffffffffffffffffffffffffffffffff1673ffffffffffffffffffffffffffffffffffffffff1673ffffffffffffffffffffffffffffffffffffffff168152602001600182015481526020016002820160009054906101000a900473ffffffffffffffffffffffffffffffffffffffff1673ffffffffffffffffffffffffffffffffffffffff1673ffffffffffffffffffffffffffffffffffffffff1681526020016003820154815250509250600160009054906101000a900473ffffffffffffffffffffffffffffffffffffffff1673ffffffffffffffffffffffffffffffffffffffff16836040015173ffffffffffffffffffffffffffffffffffffffff16141515610ff257600080fd5b4383606001511115151561100557600080fd5b3373ffffffffffffffffffffffffffffffffffffffff16836000015173ffffffffffffffffffffffffffffffffffffffff1614151561104357600080fd5b826000015191508260200151905060038481548110151561106057fe5b9060005260206000209060040201600080820160006101000a81549073ffffffffffffffffffffffffffffffffffffffff021916905560018201600090556002820160006101000a81549073ffffffffffffffffffffffffffffffffffffffff021916905560038201600090555050600260009054906101000a900473ffffffffffffffffffffffffffffffffffffffff1673ffffffffffffffffffffffffffffffffffffffff166340c10f1983836000604051602001526040518363ffffffff167c0100000000000000000000000000000000000000000000000000000000028152600401808373ffffffffffffffffffffffffffffffffffffffff1673ffffffffffffffffffffffffffffffffffffffff16815260200182815260200192505050602060405180830381600087803b151561119c57600080fd5b6102c65a03f115156111ad57600080fd5b505050604051805190505050505050565b6000600160009054906101000a900473ffffffffffffffffffffffffffffffffffffffff1673ffffffffffffffffffffffffffffffffffffffff16600460010160009054906101000a900473ffffffffffffffffffffffffffffffffffffffff1673ffffffffffffffffffffffffffffffffffffffff1614151561124157600080fd5b436004600201541115151561125557600080fd5b3373ffffffffffffffffffffffffffffffffffffffff16600460000160009054906101000a900473ffffffffffffffffffffffffffffffffffffffff1673ffffffffffffffffffffffffffffffffffffffff161415156112b457600080fd5b600460000160009054906101000a900473ffffffffffffffffffffffffffffffffffffffff1690506004600080820160006101000a81549073ffffffffffffffffffffffffffffffffffffffff02191690556001820160006101000a81549073ffffffffffffffffffffffffffffffffffffffff021916905560028201600090555050600260009054906101000a900473ffffffffffffffffffffffffffffffffffffffff1673ffffffffffffffffffffffffffffffffffffffff1663f2fde38b826040518263ffffffff167c0100000000000000000000000000000000000000000000000000000000028152600401808273ffffffffffffffffffffffffffffffffffffffff1673ffffffffffffffffffffffffffffffffffffffff168152602001915050600060405180830381600087803b15156113f357600080fd5b6102c65a03f1151561140457600080fd5b50505050565b611412611a21565b600160009054906101000a900473ffffffffffffffffffffffffffffffffffffffff1673ffffffffffffffffffffffffffffffffffffffff163373ffffffffffffffffffffffffffffffffffffffff1614151561146e57600080fd5b6060604051908101604052808373ffffffffffffffffffffffffffffffffffffffff168152602001600160009054906101000a900473ffffffffffffffffffffffffffffffffffffffff1673ffffffffffffffffffffffffffffffffffffffff168152602001611680430181525090507f354880351eed16b35bb1c79c02ad9138f1f5f88686e6ea465a363851532a0a2c816040518082815260200191505060405180910390a180600460008201518160000160006101000a81548173ffffffffffffffffffffffffffffffffffffffff021916908373ffffffffffffffffffffffffffffffffffffffff16021790555060208201518160010160006101000a81548173ffffffffffffffffffffffffffffffffffffffff021916908373ffffffffffffffffffffffffffffffffffffffff160217905550604082015181600201559050505050565b6000809054906101000a900473ffffffffffffffffffffffffffffffffffffffff1673ffffffffffffffffffffffffffffffffffffffff163373ffffffffffffffffffffffffffffffffffffffff1614151561161257600080fd5b6000809054906101000a900473ffffffffffffffffffffffffffffffffffffffff1673ffffffffffffffffffffffffffffffffffffffff166108fc3073ffffffffffffffffffffffffffffffffffffffff16319081150290604051600060405180830381858888f19350505050151561168757fe5b565b600080fd5b60038181548110151561169d57fe5b90600052602060002090600402016000915090508060000160009054906101000a900473ffffffffffffffffffffffffffffffffffffffff16908060010154908060020160009054906101000a900473ffffffffffffffffffffffffffffffffffffffff16908060030154905084565b6000809054906101000a900473ffffffffffffffffffffffffffffffffffffffff1673ffffffffffffffffffffffffffffffffffffffff163373ffffffffffffffffffffffffffffffffffffffff1614151561176857600080fd5b600073ffffffffffffffffffffffffffffffffffffffff168173ffffffffffffffffffffffffffffffffffffffff16141515156117a457600080fd5b8073ffffffffffffffffffffffffffffffffffffffff166000809054906101000a900473ffffffffffffffffffffffffffffffffffffffff1673ffffffffffffffffffffffffffffffffffffffff167f8be0079c531659141344cd1fd0a4f28419497f9722a3daafe3b4186f6b6457e060405160405180910390a3806000806101000a81548173ffffffffffffffffffffffffffffffffffffffff021916908373ffffffffffffffffffffffffffffffffffffffff16021790555050565b600160009054906101000a900473ffffffffffffffffffffffffffffffffffffffff1681565b8273ffffffffffffffffffffffffffffffffffffffff1663a9059cbb83836000604051602001526040518363ffffffff167c0100000000000000000000000000000000000000000000000000000000028152600401808373ffffffffffffffffffffffffffffffffffffffff1673ffffffffffffffffffffffffffffffffffffffff16815260200182815260200192505050602060405180830381600087803b151561193357600080fd5b6102c65a03f1151561194457600080fd5b50505060405180519050151561195657fe5b505050565b6080604051908101604052806000815260200160008152602001600073ffffffffffffffffffffffffffffffffffffffff168152602001600081525090565b608060405190810160405280600073ffffffffffffffffffffffffffffffffffffffff16815260200160008152602001600073ffffffffffffffffffffffffffffffffffffffff168152602001600081525090565b815481835581811511611a1c57600402816004028360005260206000209182019101611a1b9190611a6f565b5b505050565b606060405190810160405280600073ffffffffffffffffffffffffffffffffffffffff168152602001600073ffffffffffffffffffffffffffffffffffffffff168152602001600081525090565b611ae991905b80821115611ae557600080820160006101000a81549073ffffffffffffffffffffffffffffffffffffffff021916905560018201600090556002820160006101000a81549073ffffffffffffffffffffffffffffffffffffffff0219169055600382016000905550600401611a75565b5090565b905600a165627a7a7230582004065ffb69da1d195cf1b1a9e7018814b7de2ad5ca989df3e65c2229df85762f0029",
  "source": "pragma solidity ^0.4.17;\n\nimport 'zeppelin-solidity/contracts/ownership/HasNoEther.sol';\nimport 'zeppelin-solidity/contracts/ownership/HasNoTokens.sol';\nimport 'zeppelin-solidity/contracts/ownership/Ownable.sol';\nimport './TrueUSD.sol';\n\n// The TimeLockedAdmin contract is intended to be the initial Owner of the TrueUSD\n// contract. It splits ownership into two accounts: an \"admin\" account and an\n// \"owner\" account. The admin of TimeLockedAdmin can initiate two kinds of\n// transactions: minting TUSD, and transferring ownership of the TrueUSD\n// contract to a new owner. However, both of these transactions must be stored\n// for ~1 day's worth of blocks first before they can be forwarded to the\n// TrueUSD contract. In the event that the admin account is compromised, this\n// setup allows the owner of TimeLockedAdmin (which can be stored extremely\n// securely since it is never used in normal operation) to replace the admin.\n// Once a day has passed, all mint and ownership transfer requests can be\n// finalized by the beneficiary (the token recipient or the new owner,\n// respectively). Requests initiated by an admin that has since been deposed\n// cannot be finalized.\ncontract TimeLockedAdmin is Ownable, HasNoEther, HasNoTokens {\n\n    uint public constant blocksDelay = 24*60*60/15; // 24 hours, assuming a 15 second blocktime\n\n    struct MintOperation {\n        address to;\n        uint256 amount;\n        address admin;\n        uint deferBlock;\n    }\n\n    struct TransferOwnershipOperation {\n        address newOwner;\n        address admin;\n        uint deferBlock;\n    }\n\n    struct ChangeBurnBoundsOperation {\n        uint newMin;\n        uint newMax;\n        address admin;\n        uint deferBlock;\n    }\n\n    address public admin;\n    TrueUSD public child;\n    MintOperation[] public mintOperations;\n    TransferOwnershipOperation public transferOwnershipOperation;\n    ChangeBurnBoundsOperation public changeBurnBoundsOperation;\n\n    // starts with no admin\n    function TimeLockedAdmin(address _child) public {\n        child = TrueUSD(_child);\n    }\n\n    event MintOperationEvent(MintOperation op, uint opIndex);\n    event TransferOwnershipOperationEvent(TransferOwnershipOperation op);\n    event ChangeBurnBoundsOperationEvent(ChangeBurnBoundsOperation op);\n    event AdminshipTransferred(address indexed previousAdmin, address indexed newAdmin);\n\n    // admin initiates a request to mint _amount TUSD for account _to\n    function requestMint(address _to, uint256 _amount) public {\n        require(msg.sender == admin);\n        MintOperation memory op = MintOperation(_to, _amount, admin, block.number + blocksDelay);\n        MintOperationEvent(op, mintOperations.length);\n        mintOperations.push(op);\n    }\n\n    // admin initiates a request to transfer ownership of the TrueUSD contract to newOwner.\n    // Can be used e.g. to upgrade this TimeLockedAdmin contract.\n    function requestTransferOwnership(address newOwner) public {\n        require(msg.sender == admin);\n        TransferOwnershipOperation memory op = TransferOwnershipOperation(newOwner, admin, block.number + blocksDelay);\n        TransferOwnershipOperationEvent(op);\n        transferOwnershipOperation = op;\n    }\n\n    // admin initiates a request that the minimum and maximum amounts that any trueUSD user can\n    // burn become newMin and newMax\n    function requestChangeBurnBounds(uint newMin, uint newMax) public {\n        require(msg.sender == admin);\n        ChangeBurnBoundsOperation memory op = ChangeBurnBoundsOperation(newMin, newMax, admin, block.number + blocksDelay);\n        ChangeBurnBoundsOperationEvent(op);\n        changeBurnBoundsOperation = op;\n    }\n\n    // after a day, beneficiary of a mint request finalizes it by providing the\n    // index of the request (visible in the MintOperationEvent accompanying the original request)\n    function finalizeMint(uint index) public {\n        MintOperation memory op = mintOperations[index];\n        require(op.admin == admin); //checks that the requester's adminship has not been revoked\n        require(op.deferBlock <= block.number); //checks that enough time has elapsed\n        require(op.to == msg.sender); //only the recipient of the funds can finalize\n        address to = op.to;\n        uint256 amount = op.amount;\n        delete mintOperations[index];\n        child.mint(to, amount);\n    }\n\n    // after a day, prospective new owner of TrueUSD finalizes the ownership change\n    function finalizeTransferOwnership() public {\n        require(transferOwnershipOperation.admin == admin);\n        require(transferOwnershipOperation.deferBlock <= block.number);\n        require(transferOwnershipOperation.newOwner == msg.sender);\n        address newOwner = transferOwnershipOperation.newOwner;\n        delete transferOwnershipOperation;\n        child.transferOwnership(newOwner);\n    }\n\n    // after a day, admin finalizes the burn bounds change\n    function finalizeChangeBurnBounds() public {\n        require(msg.sender == admin);\n        require(changeBurnBoundsOperation.admin == admin);\n        require(changeBurnBoundsOperation.deferBlock <= block.number);\n        uint newMin = changeBurnBoundsOperation.newMin;\n        uint newMax = changeBurnBoundsOperation.newMax;\n        delete changeBurnBoundsOperation;\n        child.changeBurnBounds(newMin, newMax);\n    }\n\n    // Owner of this contract (immediately) replaces the current admin with newAdmin\n    function transferAdminship(address newAdmin) public onlyOwner {\n        AdminshipTransferred(admin, newAdmin);\n        admin = newAdmin;\n    }\n}",
  "sourcePath": "/Users/benjamin/trusttoken/trueUSD/contracts/TimeLockedAdmin.sol",
  "compiler": {
    "name": "solc",
    "version": "0.4.18+commit.9cf6e910.Emscripten.clang"
  },
  "schemaVersion": "1.0.1",
  "updatedAt": "2018-01-09T23:19:41.069Z"
}