{
  "contractName": "TimeLockedAdmin",
  "abi": [
    {
      "constant": false,
      "inputs": [
        {
          "name": "token",
          "type": "address"
        }
      ],
      "name": "reclaimToken",
      "outputs": [],
      "payable": false,
      "stateMutability": "nonpayable",
      "type": "function"
    },
    {
      "constant": true,
      "inputs": [],
      "name": "child",
      "outputs": [
        {
          "name": "",
          "type": "address"
        }
      ],
      "payable": false,
      "stateMutability": "view",
      "type": "function"
    },
    {
      "constant": false,
      "inputs": [],
      "name": "finalizeChangeBurnBounds",
      "outputs": [],
      "payable": false,
      "stateMutability": "nonpayable",
      "type": "function"
    },
    {
      "constant": false,
      "inputs": [
        {
          "name": "newMin",
          "type": "uint256"
        },
        {
          "name": "newMax",
          "type": "uint256"
        }
      ],
      "name": "requestChangeBurnBounds",
      "outputs": [],
      "payable": false,
      "stateMutability": "nonpayable",
      "type": "function"
    },
    {
      "constant": false,
      "inputs": [
        {
          "name": "_to",
          "type": "address"
        },
        {
          "name": "_amount",
          "type": "uint256"
        }
      ],
      "name": "requestMint",
      "outputs": [],
      "payable": false,
      "stateMutability": "nonpayable",
      "type": "function"
    },
    {
      "constant": false,
      "inputs": [
        {
          "name": "list",
          "type": "address"
        },
        {
          "name": "entry",
          "type": "address"
        },
        {
          "name": "flag",
          "type": "bool"
        }
      ],
      "name": "updateList",
      "outputs": [],
      "payable": false,
      "stateMutability": "nonpayable",
      "type": "function"
    },
    {
      "constant": true,
      "inputs": [],
      "name": "canReceiveMintWhitelist",
      "outputs": [
        {
          "name": "",
          "type": "address"
        }
      ],
      "payable": false,
      "stateMutability": "view",
      "type": "function"
    },
    {
      "constant": true,
      "inputs": [],
      "name": "transferOwnershipOperation",
      "outputs": [
        {
          "name": "newOwner",
          "type": "address"
        },
        {
          "name": "admin",
          "type": "address"
        },
        {
          "name": "deferBlock",
          "type": "uint256"
        }
      ],
      "payable": false,
      "stateMutability": "view",
      "type": "function"
    },
    {
      "constant": true,
      "inputs": [],
      "name": "canBurnWhiteList",
      "outputs": [
        {
          "name": "",
          "type": "address"
        }
      ],
      "payable": false,
      "stateMutability": "view",
      "type": "function"
    },
    {
      "constant": false,
      "inputs": [
        {
          "name": "newAdmin",
          "type": "address"
        }
      ],
      "name": "transferAdminship",
      "outputs": [],
      "payable": false,
      "stateMutability": "nonpayable",
      "type": "function"
    },
    {
      "constant": true,
      "inputs": [],
      "name": "changeBurnBoundsOperation",
      "outputs": [
        {
          "name": "newMin",
          "type": "uint256"
        },
        {
          "name": "newMax",
          "type": "uint256"
        },
        {
          "name": "admin",
          "type": "address"
        },
        {
          "name": "deferBlock",
          "type": "uint256"
        }
      ],
      "payable": false,
      "stateMutability": "view",
      "type": "function"
    },
    {
      "constant": true,
      "inputs": [],
      "name": "blocksDelay",
      "outputs": [
        {
          "name": "",
          "type": "uint256"
        }
      ],
      "payable": false,
      "stateMutability": "view",
      "type": "function"
    },
    {
      "constant": true,
      "inputs": [],
      "name": "owner",
      "outputs": [
        {
          "name": "",
          "type": "address"
        }
      ],
      "payable": false,
      "stateMutability": "view",
      "type": "function"
    },
    {
      "constant": false,
      "inputs": [
        {
          "name": "index",
          "type": "uint256"
        }
      ],
      "name": "finalizeMint",
      "outputs": [],
      "payable": false,
      "stateMutability": "nonpayable",
      "type": "function"
    },
    {
      "constant": false,
      "inputs": [],
      "name": "finalizeTransferOwnership",
      "outputs": [],
      "payable": false,
      "stateMutability": "nonpayable",
      "type": "function"
    },
    {
      "constant": false,
      "inputs": [
        {
          "name": "newOwner",
          "type": "address"
        }
      ],
      "name": "requestTransferOwnership",
      "outputs": [],
      "payable": false,
      "stateMutability": "nonpayable",
      "type": "function"
    },
    {
      "constant": false,
      "inputs": [],
      "name": "reclaimEther",
      "outputs": [],
      "payable": false,
      "stateMutability": "nonpayable",
      "type": "function"
    },
    {
      "constant": false,
      "inputs": [
        {
          "name": "from_",
          "type": "address"
        },
        {
          "name": "value_",
          "type": "uint256"
        },
        {
          "name": "data_",
          "type": "bytes"
        }
      ],
      "name": "tokenFallback",
      "outputs": [],
      "payable": false,
      "stateMutability": "nonpayable",
      "type": "function"
    },
    {
      "constant": true,
      "inputs": [],
      "name": "blackList",
      "outputs": [
        {
          "name": "",
          "type": "address"
        }
      ],
      "payable": false,
      "stateMutability": "view",
      "type": "function"
    },
    {
      "constant": true,
      "inputs": [
        {
          "name": "",
          "type": "uint256"
        }
      ],
      "name": "mintOperations",
      "outputs": [
        {
          "name": "to",
          "type": "address"
        },
        {
          "name": "amount",
          "type": "uint256"
        },
        {
          "name": "admin",
          "type": "address"
        },
        {
          "name": "deferBlock",
          "type": "uint256"
        }
      ],
      "payable": false,
      "stateMutability": "view",
      "type": "function"
    },
    {
      "constant": false,
      "inputs": [
        {
          "name": "newOwner",
          "type": "address"
        }
      ],
      "name": "transferOwnership",
      "outputs": [],
      "payable": false,
      "stateMutability": "nonpayable",
      "type": "function"
    },
    {
      "constant": true,
      "inputs": [],
      "name": "admin",
      "outputs": [
        {
          "name": "",
          "type": "address"
        }
      ],
      "payable": false,
      "stateMutability": "view",
      "type": "function"
    },
    {
      "inputs": [
        {
          "name": "_child",
          "type": "address"
        },
        {
          "name": "_canBurnWhiteList",
          "type": "address"
        },
        {
          "name": "_canReceiveMintWhitelist",
          "type": "address"
        },
        {
          "name": "_blackList",
          "type": "address"
        }
      ],
      "payable": false,
      "stateMutability": "nonpayable",
      "type": "constructor"
    },
    {
      "payable": false,
      "stateMutability": "nonpayable",
      "type": "fallback"
    },
    {
      "anonymous": false,
      "inputs": [
        {
          "components": [
            {
              "name": "to",
              "type": "address"
            },
            {
              "name": "amount",
              "type": "uint256"
            },
            {
              "name": "admin",
              "type": "address"
            },
            {
              "name": "deferBlock",
              "type": "uint256"
            }
          ],
          "indexed": false,
          "name": "op",
          "type": "tuple"
        },
        {
          "indexed": false,
          "name": "opIndex",
          "type": "uint256"
        }
      ],
      "name": "MintOperationEvent",
      "type": "event"
    },
    {
      "anonymous": false,
      "inputs": [
        {
          "components": [
            {
              "name": "newOwner",
              "type": "address"
            },
            {
              "name": "admin",
              "type": "address"
            },
            {
              "name": "deferBlock",
              "type": "uint256"
            }
          ],
          "indexed": false,
          "name": "op",
          "type": "tuple"
        }
      ],
      "name": "TransferOwnershipOperationEvent",
      "type": "event"
    },
    {
      "anonymous": false,
      "inputs": [
        {
          "components": [
            {
              "name": "newMin",
              "type": "uint256"
            },
            {
              "name": "newMax",
              "type": "uint256"
            },
            {
              "name": "admin",
              "type": "address"
            },
            {
              "name": "deferBlock",
              "type": "uint256"
            }
          ],
          "indexed": false,
          "name": "op",
          "type": "tuple"
        }
      ],
      "name": "ChangeBurnBoundsOperationEvent",
      "type": "event"
    },
    {
      "anonymous": false,
      "inputs": [
        {
          "indexed": true,
          "name": "previousAdmin",
          "type": "address"
        },
        {
          "indexed": true,
          "name": "newAdmin",
          "type": "address"
        }
      ],
      "name": "AdminshipTransferred",
      "type": "event"
    },
    {
      "anonymous": false,
      "inputs": [
        {
          "indexed": true,
          "name": "previousOwner",
          "type": "address"
        },
        {
          "indexed": true,
          "name": "newOwner",
          "type": "address"
        }
      ],
      "name": "OwnershipTransferred",
      "type": "event"
    }
  ],
  "bytecode": "0x6060604052341561000f57600080fd5b60405160808061224f83398101604052808051906020019091908051906020019091908051906020019091908051906020019091905050336000806101000a81548173ffffffffffffffffffffffffffffffffffffffff021916908373ffffffffffffffffffffffffffffffffffffffff16021790555060003414151561009557600080fd5b83600260006101000a81548173ffffffffffffffffffffffffffffffffffffffff021916908373ffffffffffffffffffffffffffffffffffffffff16021790555082600360006101000a81548173ffffffffffffffffffffffffffffffffffffffff021916908373ffffffffffffffffffffffffffffffffffffffff16021790555081600460006101000a81548173ffffffffffffffffffffffffffffffffffffffff021916908373ffffffffffffffffffffffffffffffffffffffff16021790555080600560006101000a81548173ffffffffffffffffffffffffffffffffffffffff021916908373ffffffffffffffffffffffffffffffffffffffff160217905550505050506120a3806101ac6000396000f300606060405260043610610128576000357c0100000000000000000000000000000000000000000000000000000000900463ffffffff16806317ffc32014610135578063237b5e961461016e578063267822c1146101c35780632692281d146101d857806331a02bce1461020457806337a87dfa1461024657806342995e12146102a95780634955a79e146102fe5780635a4441391461038d5780635be7cc16146103e25780636a7245ef1461041b5780638a689784146104855780638da5cb5b146104ae5780638e3af93f146105035780639d1d6b8a146105265780639d6fa6181461053b5780639f727c2714610574578063c0ee0b8a14610589578063cdab73b5146105df578063ec38e85514610634578063f2fde38b146106d8578063f851a44014610711575b341561013357600080fd5b005b341561014057600080fd5b61016c600480803573ffffffffffffffffffffffffffffffffffffffff16906020019091905050610766565b005b341561017957600080fd5b6101816108d3565b604051808273ffffffffffffffffffffffffffffffffffffffff1673ffffffffffffffffffffffffffffffffffffffff16815260200191505060405180910390f35b34156101ce57600080fd5b6101d66108f9565b005b34156101e357600080fd5b6102026004808035906020019091908035906020019091905050610af1565b005b341561020f57600080fd5b610244600480803573ffffffffffffffffffffffffffffffffffffffff16906020019091908035906020019091905050610c5c565b005b341561025157600080fd5b6102a7600480803573ffffffffffffffffffffffffffffffffffffffff1690602001909190803573ffffffffffffffffffffffffffffffffffffffff169060200190919080351515906020019091905050610e4e565b005b34156102b457600080fd5b6102bc610f69565b604051808273ffffffffffffffffffffffffffffffffffffffff1673ffffffffffffffffffffffffffffffffffffffff16815260200191505060405180910390f35b341561030957600080fd5b610311610f8f565b604051808473ffffffffffffffffffffffffffffffffffffffff1673ffffffffffffffffffffffffffffffffffffffff1681526020018373ffffffffffffffffffffffffffffffffffffffff1673ffffffffffffffffffffffffffffffffffffffff168152602001828152602001935050505060405180910390f35b341561039857600080fd5b6103a0610fe7565b604051808273ffffffffffffffffffffffffffffffffffffffff1673ffffffffffffffffffffffffffffffffffffffff16815260200191505060405180910390f35b34156103ed57600080fd5b610419600480803573ffffffffffffffffffffffffffffffffffffffff1690602001909190505061100d565b005b341561042657600080fd5b61042e611128565b604051808581526020018481526020018373ffffffffffffffffffffffffffffffffffffffff1673ffffffffffffffffffffffffffffffffffffffff16815260200182815260200194505050505060405180910390f35b341561049057600080fd5b610498611166565b6040518082815260200191505060405180910390f35b34156104b957600080fd5b6104c161116c565b604051808273ffffffffffffffffffffffffffffffffffffffff1673ffffffffffffffffffffffffffffffffffffffff16815260200191505060405180910390f35b341561050e57600080fd5b6105246004808035906020019091905050611191565b005b341561053157600080fd5b6105396114b3565b005b341561054657600080fd5b610572600480803573ffffffffffffffffffffffffffffffffffffffff1690602001909190505061196f565b005b341561057f57600080fd5b610587611b1c565b005b341561059457600080fd5b6105dd600480803573ffffffffffffffffffffffffffffffffffffffff169060200190919080359060200190919080359060200190820180359060200191909192905050611bee565b005b34156105ea57600080fd5b6105f2611bf3565b604051808273ffffffffffffffffffffffffffffffffffffffff1673ffffffffffffffffffffffffffffffffffffffff16815260200191505060405180910390f35b341561063f57600080fd5b6106556004808035906020019091905050611c19565b604051808573ffffffffffffffffffffffffffffffffffffffff1673ffffffffffffffffffffffffffffffffffffffff1681526020018481526020018373ffffffffffffffffffffffffffffffffffffffff1673ffffffffffffffffffffffffffffffffffffffff16815260200182815260200194505050505060405180910390f35b34156106e357600080fd5b61070f600480803573ffffffffffffffffffffffffffffffffffffffff16906020019091905050611c98565b005b341561071c57600080fd5b610724611ded565b604051808273ffffffffffffffffffffffffffffffffffffffff1673ffffffffffffffffffffffffffffffffffffffff16815260200191505060405180910390f35b60008060009054906101000a900473ffffffffffffffffffffffffffffffffffffffff1673ffffffffffffffffffffffffffffffffffffffff163373ffffffffffffffffffffffffffffffffffffffff161415156107c357600080fd5b8173ffffffffffffffffffffffffffffffffffffffff166370a08231306000604051602001526040518263ffffffff167c0100000000000000000000000000000000000000000000000000000000028152600401808273ffffffffffffffffffffffffffffffffffffffff1673ffffffffffffffffffffffffffffffffffffffff168152602001915050602060405180830381600087803b151561086657600080fd5b6102c65a03f1151561087757600080fd5b5050506040518051905090506108cf6000809054906101000a900473ffffffffffffffffffffffffffffffffffffffff16828473ffffffffffffffffffffffffffffffffffffffff16611e139092919063ffffffff16565b5050565b600260009054906101000a900473ffffffffffffffffffffffffffffffffffffffff1681565b600080600160009054906101000a900473ffffffffffffffffffffffffffffffffffffffff1673ffffffffffffffffffffffffffffffffffffffff163373ffffffffffffffffffffffffffffffffffffffff1614151561095857600080fd5b600160009054906101000a900473ffffffffffffffffffffffffffffffffffffffff1673ffffffffffffffffffffffffffffffffffffffff16600a60020160009054906101000a900473ffffffffffffffffffffffffffffffffffffffff1673ffffffffffffffffffffffffffffffffffffffff161415156109d957600080fd5b43600a60030154111515156109ed57600080fd5b600a600001549150600a600101549050600a60008082016000905560018201600090556002820160006101000a81549073ffffffffffffffffffffffffffffffffffffffff021916905560038201600090555050600260009054906101000a900473ffffffffffffffffffffffffffffffffffffffff1673ffffffffffffffffffffffffffffffffffffffff166370df42e183836040518363ffffffff167c01000000000000000000000000000000000000000000000000000000000281526004018083815260200182815260200192505050600060405180830381600087803b1515610ad957600080fd5b6102c65a03f11515610aea57600080fd5b5050505050565b610af9611ee6565b600160009054906101000a900473ffffffffffffffffffffffffffffffffffffffff1673ffffffffffffffffffffffffffffffffffffffff163373ffffffffffffffffffffffffffffffffffffffff16141515610b5557600080fd5b608060405190810160405280848152602001838152602001600160009054906101000a900473ffffffffffffffffffffffffffffffffffffffff1673ffffffffffffffffffffffffffffffffffffffff168152602001611680430181525090507f03051e39c12421e9f3b4c6bf2ef6ef14aff636a37ee698eac3e5d84a7d392300816040518082815260200191505060405180910390a180600a600082015181600001556020820151816001015560408201518160020160006101000a81548173ffffffffffffffffffffffffffffffffffffffff021916908373ffffffffffffffffffffffffffffffffffffffff16021790555060608201518160030155905050505050565b610c64611f25565b600160009054906101000a900473ffffffffffffffffffffffffffffffffffffffff1673ffffffffffffffffffffffffffffffffffffffff163373ffffffffffffffffffffffffffffffffffffffff16141515610cc057600080fd5b6080604051908101604052808473ffffffffffffffffffffffffffffffffffffffff168152602001838152602001600160009054906101000a900473ffffffffffffffffffffffffffffffffffffffff1673ffffffffffffffffffffffffffffffffffffffff168152602001611680430181525090507f1d071dfe5c24be4bb56ca52a7ff646f8c51e5917c9747834c1187c954238b60781600680549050604051808381526020018281526020019250505060405180910390a160068054806001018281610d8e9190611f7a565b9160005260206000209060040201600083909190915060008201518160000160006101000a81548173ffffffffffffffffffffffffffffffffffffffff021916908373ffffffffffffffffffffffffffffffffffffffff1602179055506020820151816001015560408201518160020160006101000a81548173ffffffffffffffffffffffffffffffffffffffff021916908373ffffffffffffffffffffffffffffffffffffffff16021790555060608201518160030155505050505050565b600160009054906101000a900473ffffffffffffffffffffffffffffffffffffffff1673ffffffffffffffffffffffffffffffffffffffff163373ffffffffffffffffffffffffffffffffffffffff16141515610eaa57600080fd5b8273ffffffffffffffffffffffffffffffffffffffff1663efbd9ec283836040518363ffffffff167c0100000000000000000000000000000000000000000000000000000000028152600401808373ffffffffffffffffffffffffffffffffffffffff1673ffffffffffffffffffffffffffffffffffffffff1681526020018215151515815260200192505050600060405180830381600087803b1515610f5057600080fd5b6102c65a03f11515610f6157600080fd5b505050505050565b600460009054906101000a900473ffffffffffffffffffffffffffffffffffffffff1681565b60078060000160009054906101000a900473ffffffffffffffffffffffffffffffffffffffff16908060010160009054906101000a900473ffffffffffffffffffffffffffffffffffffffff16908060020154905083565b600360009054906101000a900473ffffffffffffffffffffffffffffffffffffffff1681565b6000809054906101000a900473ffffffffffffffffffffffffffffffffffffffff1673ffffffffffffffffffffffffffffffffffffffff163373ffffffffffffffffffffffffffffffffffffffff1614151561106857600080fd5b8073ffffffffffffffffffffffffffffffffffffffff16600160009054906101000a900473ffffffffffffffffffffffffffffffffffffffff1673ffffffffffffffffffffffffffffffffffffffff167f2931ebb3d190545dcf6801c37aa686b74f2e1000e753d0fac6e471a2aa5a621360405160405180910390a380600160006101000a81548173ffffffffffffffffffffffffffffffffffffffff021916908373ffffffffffffffffffffffffffffffffffffffff16021790555050565b600a8060000154908060010154908060020160009054906101000a900473ffffffffffffffffffffffffffffffffffffffff16908060030154905084565b61168081565b6000809054906101000a900473ffffffffffffffffffffffffffffffffffffffff1681565b611199611f25565b6000806006848154811015156111ab57fe5b9060005260206000209060040201608060405190810160405290816000820160009054906101000a900473ffffffffffffffffffffffffffffffffffffffff1673ffffffffffffffffffffffffffffffffffffffff1673ffffffffffffffffffffffffffffffffffffffff168152602001600182015481526020016002820160009054906101000a900473ffffffffffffffffffffffffffffffffffffffff1673ffffffffffffffffffffffffffffffffffffffff1673ffffffffffffffffffffffffffffffffffffffff1681526020016003820154815250509250600160009054906101000a900473ffffffffffffffffffffffffffffffffffffffff1673ffffffffffffffffffffffffffffffffffffffff16836040015173ffffffffffffffffffffffffffffffffffffffff161415156112e757600080fd5b438360600151111515156112fa57600080fd5b3373ffffffffffffffffffffffffffffffffffffffff16836000015173ffffffffffffffffffffffffffffffffffffffff1614151561133857600080fd5b826000015191508260200151905060068481548110151561135557fe5b9060005260206000209060040201600080820160006101000a81549073ffffffffffffffffffffffffffffffffffffffff021916905560018201600090556002820160006101000a81549073ffffffffffffffffffffffffffffffffffffffff021916905560038201600090555050600260009054906101000a900473ffffffffffffffffffffffffffffffffffffffff1673ffffffffffffffffffffffffffffffffffffffff166340c10f1983836000604051602001526040518363ffffffff167c0100000000000000000000000000000000000000000000000000000000028152600401808373ffffffffffffffffffffffffffffffffffffffff1673ffffffffffffffffffffffffffffffffffffffff16815260200182815260200192505050602060405180830381600087803b151561149157600080fd5b6102c65a03f115156114a257600080fd5b505050604051805190505050505050565b6000600160009054906101000a900473ffffffffffffffffffffffffffffffffffffffff1673ffffffffffffffffffffffffffffffffffffffff16600760010160009054906101000a900473ffffffffffffffffffffffffffffffffffffffff1673ffffffffffffffffffffffffffffffffffffffff1614151561153657600080fd5b436007600201541115151561154a57600080fd5b3373ffffffffffffffffffffffffffffffffffffffff16600760000160009054906101000a900473ffffffffffffffffffffffffffffffffffffffff1673ffffffffffffffffffffffffffffffffffffffff161415156115a957600080fd5b600760000160009054906101000a900473ffffffffffffffffffffffffffffffffffffffff1690506007600080820160006101000a81549073ffffffffffffffffffffffffffffffffffffffff02191690556001820160006101000a81549073ffffffffffffffffffffffffffffffffffffffff021916905560028201600090555050600260009054906101000a900473ffffffffffffffffffffffffffffffffffffffff1673ffffffffffffffffffffffffffffffffffffffff1663f2fde38b826040518263ffffffff167c0100000000000000000000000000000000000000000000000000000000028152600401808273ffffffffffffffffffffffffffffffffffffffff1673ffffffffffffffffffffffffffffffffffffffff168152602001915050600060405180830381600087803b15156116e857600080fd5b6102c65a03f115156116f957600080fd5b505050600360009054906101000a900473ffffffffffffffffffffffffffffffffffffffff1673ffffffffffffffffffffffffffffffffffffffff1663f2fde38b826040518263ffffffff167c0100000000000000000000000000000000000000000000000000000000028152600401808273ffffffffffffffffffffffffffffffffffffffff1673ffffffffffffffffffffffffffffffffffffffff168152602001915050600060405180830381600087803b15156117b857600080fd5b6102c65a03f115156117c957600080fd5b505050600460009054906101000a900473ffffffffffffffffffffffffffffffffffffffff1673ffffffffffffffffffffffffffffffffffffffff1663f2fde38b826040518263ffffffff167c0100000000000000000000000000000000000000000000000000000000028152600401808273ffffffffffffffffffffffffffffffffffffffff1673ffffffffffffffffffffffffffffffffffffffff168152602001915050600060405180830381600087803b151561188857600080fd5b6102c65a03f1151561189957600080fd5b505050600560009054906101000a900473ffffffffffffffffffffffffffffffffffffffff1673ffffffffffffffffffffffffffffffffffffffff1663f2fde38b826040518263ffffffff167c0100000000000000000000000000000000000000000000000000000000028152600401808273ffffffffffffffffffffffffffffffffffffffff1673ffffffffffffffffffffffffffffffffffffffff168152602001915050600060405180830381600087803b151561195857600080fd5b6102c65a03f1151561196957600080fd5b50505050565b611977611fac565b600160009054906101000a900473ffffffffffffffffffffffffffffffffffffffff1673ffffffffffffffffffffffffffffffffffffffff163373ffffffffffffffffffffffffffffffffffffffff161415156119d357600080fd5b6060604051908101604052808373ffffffffffffffffffffffffffffffffffffffff168152602001600160009054906101000a900473ffffffffffffffffffffffffffffffffffffffff1673ffffffffffffffffffffffffffffffffffffffff168152602001611680430181525090507f354880351eed16b35bb1c79c02ad9138f1f5f88686e6ea465a363851532a0a2c816040518082815260200191505060405180910390a180600760008201518160000160006101000a81548173ffffffffffffffffffffffffffffffffffffffff021916908373ffffffffffffffffffffffffffffffffffffffff16021790555060208201518160010160006101000a81548173ffffffffffffffffffffffffffffffffffffffff021916908373ffffffffffffffffffffffffffffffffffffffff160217905550604082015181600201559050505050565b6000809054906101000a900473ffffffffffffffffffffffffffffffffffffffff1673ffffffffffffffffffffffffffffffffffffffff163373ffffffffffffffffffffffffffffffffffffffff16141515611b7757600080fd5b6000809054906101000a900473ffffffffffffffffffffffffffffffffffffffff1673ffffffffffffffffffffffffffffffffffffffff166108fc3073ffffffffffffffffffffffffffffffffffffffff16319081150290604051600060405180830381858888f193505050501515611bec57fe5b565b600080fd5b600560009054906101000a900473ffffffffffffffffffffffffffffffffffffffff1681565b600681815481101515611c2857fe5b90600052602060002090600402016000915090508060000160009054906101000a900473ffffffffffffffffffffffffffffffffffffffff16908060010154908060020160009054906101000a900473ffffffffffffffffffffffffffffffffffffffff16908060030154905084565b6000809054906101000a900473ffffffffffffffffffffffffffffffffffffffff1673ffffffffffffffffffffffffffffffffffffffff163373ffffffffffffffffffffffffffffffffffffffff16141515611cf357600080fd5b600073ffffffffffffffffffffffffffffffffffffffff168173ffffffffffffffffffffffffffffffffffffffff1614151515611d2f57600080fd5b8073ffffffffffffffffffffffffffffffffffffffff166000809054906101000a900473ffffffffffffffffffffffffffffffffffffffff1673ffffffffffffffffffffffffffffffffffffffff167f8be0079c531659141344cd1fd0a4f28419497f9722a3daafe3b4186f6b6457e060405160405180910390a3806000806101000a81548173ffffffffffffffffffffffffffffffffffffffff021916908373ffffffffffffffffffffffffffffffffffffffff16021790555050565b600160009054906101000a900473ffffffffffffffffffffffffffffffffffffffff1681565b8273ffffffffffffffffffffffffffffffffffffffff1663a9059cbb83836000604051602001526040518363ffffffff167c0100000000000000000000000000000000000000000000000000000000028152600401808373ffffffffffffffffffffffffffffffffffffffff1673ffffffffffffffffffffffffffffffffffffffff16815260200182815260200192505050602060405180830381600087803b1515611ebe57600080fd5b6102c65a03f11515611ecf57600080fd5b505050604051805190501515611ee157fe5b505050565b6080604051908101604052806000815260200160008152602001600073ffffffffffffffffffffffffffffffffffffffff168152602001600081525090565b608060405190810160405280600073ffffffffffffffffffffffffffffffffffffffff16815260200160008152602001600073ffffffffffffffffffffffffffffffffffffffff168152602001600081525090565b815481835581811511611fa757600402816004028360005260206000209182019101611fa69190611ffa565b5b505050565b606060405190810160405280600073ffffffffffffffffffffffffffffffffffffffff168152602001600073ffffffffffffffffffffffffffffffffffffffff168152602001600081525090565b61207491905b8082111561207057600080820160006101000a81549073ffffffffffffffffffffffffffffffffffffffff021916905560018201600090556002820160006101000a81549073ffffffffffffffffffffffffffffffffffffffff0219169055600382016000905550600401612000565b5090565b905600a165627a7a72305820103ac731b0201da0ecca79b3139ee38b743d8359e9ac77d1e43ccfad48bd8b990029",
  "source": "pragma solidity ^0.4.18;\n\nimport 'zeppelin-solidity/contracts/ownership/HasNoEther.sol';\nimport 'zeppelin-solidity/contracts/ownership/HasNoTokens.sol';\nimport 'zeppelin-solidity/contracts/ownership/Ownable.sol';\nimport './TrueUSD.sol';\n\n// The TimeLockedAdmin contract is intended to be the initial Owner of the TrueUSD\n// contract and TrueUSD's AddressLists. It splits ownership into two accounts: an \"admin\" account and an\n// \"owner\" account. The admin of TimeLockedAdmin can initiate two kinds of\n// transactions: minting TrueUSD, and transferring ownership of the TrueUSD\n// contract to a new owner. However, both of these transactions must be stored\n// for ~1 day's worth of blocks first before they can be forwarded to the\n// TrueUSD contract. In the event that the admin account is compromised, this\n// setup allows the owner of TimeLockedAdmin (which can be stored extremely\n// securely since it is never used in normal operation) to replace the admin.\n// Once a day has passed, all mint and ownership transfer requests can be\n// finalized by the beneficiary (the token recipient or the new owner,\n// respectively). Requests initiated by an admin that has since been deposed\n// cannot be finalized. The admin is also able to update TrueUSD's AddressLists\n// (without a day's delay).\ncontract TimeLockedAdmin is Ownable, HasNoEther, HasNoTokens {\n\n    uint public constant blocksDelay = 24*60*60/15; // 24 hours, assuming a 15 second blocktime\n\n    struct MintOperation {\n        address to;\n        uint256 amount;\n        address admin;\n        uint deferBlock;\n    }\n\n    struct TransferOwnershipOperation {\n        address newOwner;\n        address admin;\n        uint deferBlock;\n    }\n\n    struct ChangeBurnBoundsOperation {\n        uint newMin;\n        uint newMax;\n        address admin;\n        uint deferBlock;\n    }\n\n    address public admin;\n    TrueUSD public child;\n    AddressList public canBurnWhiteList;\n    AddressList public canReceiveMintWhitelist;\n    AddressList public blackList;\n    MintOperation[] public mintOperations;\n    TransferOwnershipOperation public transferOwnershipOperation;\n    ChangeBurnBoundsOperation public changeBurnBoundsOperation;\n\n    // starts with no admin\n    function TimeLockedAdmin(address _child, address _canBurnWhiteList, address _canReceiveMintWhitelist, address _blackList) public {\n        child = TrueUSD(_child);\n        canBurnWhiteList = AddressList(_canBurnWhiteList);\n        canReceiveMintWhitelist = AddressList(_canReceiveMintWhitelist);\n        blackList = AddressList(_blackList);\n    }\n\n    event MintOperationEvent(MintOperation op, uint opIndex);\n    event TransferOwnershipOperationEvent(TransferOwnershipOperation op);\n    event ChangeBurnBoundsOperationEvent(ChangeBurnBoundsOperation op);\n    event AdminshipTransferred(address indexed previousAdmin, address indexed newAdmin);\n\n    // admin initiates a request to mint _amount TUSD for account _to\n    function requestMint(address _to, uint256 _amount) public {\n        require(msg.sender == admin);\n        MintOperation memory op = MintOperation(_to, _amount, admin, block.number + blocksDelay);\n        MintOperationEvent(op, mintOperations.length);\n        mintOperations.push(op);\n    }\n\n    // admin initiates a request to transfer ownership of the TrueUSD contract and all AddressLists to newOwner.\n    // Can be used e.g. to upgrade this TimeLockedAdmin contract.\n    function requestTransferOwnership(address newOwner) public {\n        require(msg.sender == admin);\n        TransferOwnershipOperation memory op = TransferOwnershipOperation(newOwner, admin, block.number + blocksDelay);\n        TransferOwnershipOperationEvent(op);\n        transferOwnershipOperation = op;\n    }\n\n    // admin initiates a request that the minimum and maximum amounts that any trueUSD user can\n    // burn become newMin and newMax\n    function requestChangeBurnBounds(uint newMin, uint newMax) public {\n        require(msg.sender == admin);\n        ChangeBurnBoundsOperation memory op = ChangeBurnBoundsOperation(newMin, newMax, admin, block.number + blocksDelay);\n        ChangeBurnBoundsOperationEvent(op);\n        changeBurnBoundsOperation = op;\n    }\n\n    // after a day, beneficiary of a mint request finalizes it by providing the\n    // index of the request (visible in the MintOperationEvent accompanying the original request)\n    function finalizeMint(uint index) public {\n        MintOperation memory op = mintOperations[index];\n        require(op.admin == admin); //checks that the requester's adminship has not been revoked\n        require(op.deferBlock <= block.number); //checks that enough time has elapsed\n        require(op.to == msg.sender); //only the recipient of the funds can finalize\n        address to = op.to;\n        uint256 amount = op.amount;\n        delete mintOperations[index];\n        child.mint(to, amount);\n    }\n\n    // after a day, prospective new owner of TrueUSD finalizes the ownership change\n    function finalizeTransferOwnership() public {\n        require(transferOwnershipOperation.admin == admin);\n        require(transferOwnershipOperation.deferBlock <= block.number);\n        require(transferOwnershipOperation.newOwner == msg.sender);\n        address newOwner = transferOwnershipOperation.newOwner;\n        delete transferOwnershipOperation;\n        child.transferOwnership(newOwner);\n        canBurnWhiteList.transferOwnership(newOwner);\n        canReceiveMintWhitelist.transferOwnership(newOwner);\n        blackList.transferOwnership(newOwner);\n    }\n\n    // after a day, admin finalizes the burn bounds change\n    function finalizeChangeBurnBounds() public {\n        require(msg.sender == admin);\n        require(changeBurnBoundsOperation.admin == admin);\n        require(changeBurnBoundsOperation.deferBlock <= block.number);\n        uint newMin = changeBurnBoundsOperation.newMin;\n        uint newMax = changeBurnBoundsOperation.newMax;\n        delete changeBurnBoundsOperation;\n        child.changeBurnBounds(newMin, newMax);\n    }\n\n    // Owner of this contract (immediately) replaces the current admin with newAdmin\n    function transferAdminship(address newAdmin) public onlyOwner {\n        AdminshipTransferred(admin, newAdmin);\n        admin = newAdmin;\n    }\n\n    function updateList(address list, address entry, bool flag) public {\n        require(msg.sender == admin);\n        AddressList(list).changeList(entry, flag);\n    }\n}\n",
  "sourcePath": "/Users/ozziegooen/zentrust/trucoin/contracts/TimeLockedAdmin.sol",
  "compiler": {
    "name": "solc",
    "version": "0.4.18+commit.9cf6e910.Emscripten.clang"
  },
  "schemaVersion": "1.0.1",
  "updatedAt": "2018-01-16T08:01:43.365Z"
}