{
  "contractName": "TimeLockedAdmin",
  "abi": [
    {
      "constant": false,
      "inputs": [
        {
          "name": "token",
          "type": "address"
        }
      ],
      "name": "reclaimToken",
      "outputs": [],
      "payable": false,
      "stateMutability": "nonpayable",
      "type": "function"
    },
    {
      "constant": true,
      "inputs": [],
      "name": "child",
      "outputs": [
        {
          "name": "",
          "type": "address"
        }
      ],
      "payable": false,
      "stateMutability": "view",
      "type": "function"
    },
    {
      "constant": false,
      "inputs": [],
      "name": "finalizeChangeBurnBounds",
      "outputs": [],
      "payable": false,
      "stateMutability": "nonpayable",
      "type": "function"
    },
    {
      "constant": false,
      "inputs": [
        {
          "name": "newMin",
          "type": "uint256"
        },
        {
          "name": "newMax",
          "type": "uint256"
        }
      ],
      "name": "requestChangeBurnBounds",
      "outputs": [],
      "payable": false,
      "stateMutability": "nonpayable",
      "type": "function"
    },
    {
      "constant": false,
      "inputs": [
        {
          "name": "_to",
          "type": "address"
        },
        {
          "name": "_amount",
          "type": "uint256"
        }
      ],
      "name": "requestMint",
      "outputs": [],
      "payable": false,
      "stateMutability": "nonpayable",
      "type": "function"
    },
    {
      "constant": false,
      "inputs": [
        {
          "name": "list",
          "type": "address"
        },
        {
          "name": "entry",
          "type": "address"
        },
        {
          "name": "flag",
          "type": "bool"
        }
      ],
      "name": "updateList",
      "outputs": [],
      "payable": false,
      "stateMutability": "nonpayable",
      "type": "function"
    },
    {
      "constant": true,
      "inputs": [],
      "name": "canReceiveMintWhitelist",
      "outputs": [
        {
          "name": "",
          "type": "address"
        }
      ],
      "payable": false,
      "stateMutability": "view",
      "type": "function"
    },
    {
      "constant": true,
      "inputs": [],
      "name": "transferOwnershipOperation",
      "outputs": [
        {
          "name": "newOwner",
          "type": "address"
        },
        {
          "name": "admin",
          "type": "address"
        },
        {
          "name": "deferBlock",
          "type": "uint256"
        }
      ],
      "payable": false,
      "stateMutability": "view",
      "type": "function"
    },
    {
      "constant": false,
      "inputs": [
        {
          "name": "newBips",
          "type": "uint16"
        }
      ],
      "name": "requestChangeInsuranceFeeBips",
      "outputs": [],
      "payable": false,
      "stateMutability": "nonpayable",
      "type": "function"
    },
    {
      "constant": true,
      "inputs": [],
      "name": "canBurnWhiteList",
      "outputs": [
        {
          "name": "",
          "type": "address"
        }
      ],
      "payable": false,
      "stateMutability": "view",
      "type": "function"
    },
    {
      "constant": true,
      "inputs": [],
      "name": "changeInsuranceFeeBipsOperation",
      "outputs": [
        {
          "name": "newBips",
          "type": "uint16"
        },
        {
          "name": "admin",
          "type": "address"
        },
        {
          "name": "deferBlock",
          "type": "uint256"
        }
      ],
      "payable": false,
      "stateMutability": "view",
      "type": "function"
    },
    {
      "constant": false,
      "inputs": [
        {
          "name": "newAdmin",
          "type": "address"
        }
      ],
      "name": "transferAdminship",
      "outputs": [],
      "payable": false,
      "stateMutability": "nonpayable",
      "type": "function"
    },
    {
      "constant": true,
      "inputs": [],
      "name": "changeBurnBoundsOperation",
      "outputs": [
        {
          "name": "newMin",
          "type": "uint256"
        },
        {
          "name": "newMax",
          "type": "uint256"
        },
        {
          "name": "admin",
          "type": "address"
        },
        {
          "name": "deferBlock",
          "type": "uint256"
        }
      ],
      "payable": false,
      "stateMutability": "view",
      "type": "function"
    },
    {
      "constant": true,
      "inputs": [],
      "name": "blocksDelay",
      "outputs": [
        {
          "name": "",
          "type": "uint256"
        }
      ],
      "payable": false,
      "stateMutability": "view",
      "type": "function"
    },
    {
      "constant": true,
      "inputs": [],
      "name": "changeInsurerOperation",
      "outputs": [
        {
          "name": "newInsurer",
          "type": "address"
        },
        {
          "name": "admin",
          "type": "address"
        },
        {
          "name": "deferBlock",
          "type": "uint256"
        }
      ],
      "payable": false,
      "stateMutability": "view",
      "type": "function"
    },
    {
      "constant": true,
      "inputs": [],
      "name": "owner",
      "outputs": [
        {
          "name": "",
          "type": "address"
        }
      ],
      "payable": false,
      "stateMutability": "view",
      "type": "function"
    },
    {
      "constant": false,
      "inputs": [
        {
          "name": "index",
          "type": "uint256"
        }
      ],
      "name": "finalizeMint",
      "outputs": [],
      "payable": false,
      "stateMutability": "nonpayable",
      "type": "function"
    },
    {
      "constant": false,
      "inputs": [],
      "name": "finalizeTransferOwnership",
      "outputs": [],
      "payable": false,
      "stateMutability": "nonpayable",
      "type": "function"
    },
    {
      "constant": false,
      "inputs": [
        {
          "name": "newOwner",
          "type": "address"
        }
      ],
      "name": "requestTransferOwnership",
      "outputs": [],
      "payable": false,
      "stateMutability": "nonpayable",
      "type": "function"
    },
    {
      "constant": false,
      "inputs": [],
      "name": "reclaimEther",
      "outputs": [],
      "payable": false,
      "stateMutability": "nonpayable",
      "type": "function"
    },
    {
      "constant": false,
      "inputs": [],
      "name": "finalizeChangeInsuranceFeeBips",
      "outputs": [],
      "payable": false,
      "stateMutability": "nonpayable",
      "type": "function"
    },
    {
      "constant": false,
      "inputs": [
        {
          "name": "newInsurer",
          "type": "address"
        }
      ],
      "name": "requestChangeInsurer",
      "outputs": [],
      "payable": false,
      "stateMutability": "nonpayable",
      "type": "function"
    },
    {
      "constant": false,
      "inputs": [],
      "name": "finalizeChangeInsurer",
      "outputs": [],
      "payable": false,
      "stateMutability": "nonpayable",
      "type": "function"
    },
    {
      "constant": false,
      "inputs": [
        {
          "name": "from_",
          "type": "address"
        },
        {
          "name": "value_",
          "type": "uint256"
        },
        {
          "name": "data_",
          "type": "bytes"
        }
      ],
      "name": "tokenFallback",
      "outputs": [],
      "payable": false,
      "stateMutability": "nonpayable",
      "type": "function"
    },
    {
      "constant": true,
      "inputs": [],
      "name": "blackList",
      "outputs": [
        {
          "name": "",
          "type": "address"
        }
      ],
      "payable": false,
      "stateMutability": "view",
      "type": "function"
    },
    {
      "constant": true,
      "inputs": [
        {
          "name": "",
          "type": "uint256"
        }
      ],
      "name": "mintOperations",
      "outputs": [
        {
          "name": "to",
          "type": "address"
        },
        {
          "name": "amount",
          "type": "uint256"
        },
        {
          "name": "admin",
          "type": "address"
        },
        {
          "name": "deferBlock",
          "type": "uint256"
        }
      ],
      "payable": false,
      "stateMutability": "view",
      "type": "function"
    },
    {
      "constant": false,
      "inputs": [
        {
          "name": "newOwner",
          "type": "address"
        }
      ],
      "name": "transferOwnership",
      "outputs": [],
      "payable": false,
      "stateMutability": "nonpayable",
      "type": "function"
    },
    {
      "constant": true,
      "inputs": [],
      "name": "admin",
      "outputs": [
        {
          "name": "",
          "type": "address"
        }
      ],
      "payable": false,
      "stateMutability": "view",
      "type": "function"
    },
    {
      "inputs": [
        {
          "name": "_child",
          "type": "address"
        },
        {
          "name": "_canBurnWhiteList",
          "type": "address"
        },
        {
          "name": "_canReceiveMintWhitelist",
          "type": "address"
        },
        {
          "name": "_blackList",
          "type": "address"
        }
      ],
      "payable": false,
      "stateMutability": "nonpayable",
      "type": "constructor"
    },
    {
      "payable": false,
      "stateMutability": "nonpayable",
      "type": "fallback"
    },
    {
      "anonymous": false,
      "inputs": [
        {
          "components": [
            {
              "name": "to",
              "type": "address"
            },
            {
              "name": "amount",
              "type": "uint256"
            },
            {
              "name": "admin",
              "type": "address"
            },
            {
              "name": "deferBlock",
              "type": "uint256"
            }
          ],
          "indexed": false,
          "name": "op",
          "type": "tuple"
        },
        {
          "indexed": false,
          "name": "opIndex",
          "type": "uint256"
        }
      ],
      "name": "MintOperationEvent",
      "type": "event"
    },
    {
      "anonymous": false,
      "inputs": [
        {
          "components": [
            {
              "name": "newOwner",
              "type": "address"
            },
            {
              "name": "admin",
              "type": "address"
            },
            {
              "name": "deferBlock",
              "type": "uint256"
            }
          ],
          "indexed": false,
          "name": "op",
          "type": "tuple"
        }
      ],
      "name": "TransferOwnershipOperationEvent",
      "type": "event"
    },
    {
      "anonymous": false,
      "inputs": [
        {
          "components": [
            {
              "name": "newMin",
              "type": "uint256"
            },
            {
              "name": "newMax",
              "type": "uint256"
            },
            {
              "name": "admin",
              "type": "address"
            },
            {
              "name": "deferBlock",
              "type": "uint256"
            }
          ],
          "indexed": false,
          "name": "op",
          "type": "tuple"
        }
      ],
      "name": "ChangeBurnBoundsOperationEvent",
      "type": "event"
    },
    {
      "anonymous": false,
      "inputs": [
        {
          "components": [
            {
              "name": "newBips",
              "type": "uint16"
            },
            {
              "name": "admin",
              "type": "address"
            },
            {
              "name": "deferBlock",
              "type": "uint256"
            }
          ],
          "indexed": false,
          "name": "op",
          "type": "tuple"
        }
      ],
      "name": "ChangeInsuranceFeeBipsOperationEvent",
      "type": "event"
    },
    {
      "anonymous": false,
      "inputs": [
        {
          "components": [
            {
              "name": "newInsurer",
              "type": "address"
            },
            {
              "name": "admin",
              "type": "address"
            },
            {
              "name": "deferBlock",
              "type": "uint256"
            }
          ],
          "indexed": false,
          "name": "op",
          "type": "tuple"
        }
      ],
      "name": "ChangeInsurerOperationEvent",
      "type": "event"
    },
    {
      "anonymous": false,
      "inputs": [
        {
          "indexed": true,
          "name": "previousAdmin",
          "type": "address"
        },
        {
          "indexed": true,
          "name": "newAdmin",
          "type": "address"
        }
      ],
      "name": "AdminshipTransferred",
      "type": "event"
    },
    {
      "anonymous": false,
      "inputs": [
        {
          "indexed": true,
          "name": "previousOwner",
          "type": "address"
        },
        {
          "indexed": true,
          "name": "newOwner",
          "type": "address"
        }
      ],
      "name": "OwnershipTransferred",
      "type": "event"
    }
  ],
  "bytecode": "0x6060604052341561000f57600080fd5b604051608080612cab83398101604052808051906020019091908051906020019091908051906020019091908051906020019091905050336000806101000a81548173ffffffffffffffffffffffffffffffffffffffff021916908373ffffffffffffffffffffffffffffffffffffffff16021790555060003414151561009557600080fd5b83600260006101000a81548173ffffffffffffffffffffffffffffffffffffffff021916908373ffffffffffffffffffffffffffffffffffffffff16021790555082600360006101000a81548173ffffffffffffffffffffffffffffffffffffffff021916908373ffffffffffffffffffffffffffffffffffffffff16021790555081600460006101000a81548173ffffffffffffffffffffffffffffffffffffffff021916908373ffffffffffffffffffffffffffffffffffffffff16021790555080600560006101000a81548173ffffffffffffffffffffffffffffffffffffffff021916908373ffffffffffffffffffffffffffffffffffffffff16021790555050505050612aff806101ac6000396000f30060606040526004361061016a576000357c0100000000000000000000000000000000000000000000000000000000900463ffffffff16806317ffc32014610177578063237b5e96146101b0578063267822c1146102055780632692281d1461021a57806331a02bce1461024657806337a87dfa1461028857806342995e12146102eb5780634955a79e146103405780634c220185146103cf5780635a444139146103f65780635b8fdd9c1461044b5780635be7cc16146104b65780636a7245ef146104ef5780638a689784146105595780638ab8342e146105825780638da5cb5b146106115780638e3af93f146106665780639d1d6b8a146106895780639d6fa6181461069e5780639f727c27146106d7578063a603bb68146106ec578063b15d6f3514610701578063b2b95adc1461073a578063c0ee0b8a1461074f578063cdab73b5146107a5578063ec38e855146107fa578063f2fde38b1461089e578063f851a440146108d7575b341561017557600080fd5b005b341561018257600080fd5b6101ae600480803573ffffffffffffffffffffffffffffffffffffffff1690602001909190505061092c565b005b34156101bb57600080fd5b6101c3610a99565b604051808273ffffffffffffffffffffffffffffffffffffffff1673ffffffffffffffffffffffffffffffffffffffff16815260200191505060405180910390f35b341561021057600080fd5b610218610abf565b005b341561022557600080fd5b6102446004808035906020019091908035906020019091905050610cb7565b005b341561025157600080fd5b610286600480803573ffffffffffffffffffffffffffffffffffffffff16906020019091908035906020019091905050610e22565b005b341561029357600080fd5b6102e9600480803573ffffffffffffffffffffffffffffffffffffffff1690602001909190803573ffffffffffffffffffffffffffffffffffffffff169060200190919080351515906020019091905050611014565b005b34156102f657600080fd5b6102fe61112f565b604051808273ffffffffffffffffffffffffffffffffffffffff1673ffffffffffffffffffffffffffffffffffffffff16815260200191505060405180910390f35b341561034b57600080fd5b610353611155565b604051808473ffffffffffffffffffffffffffffffffffffffff1673ffffffffffffffffffffffffffffffffffffffff1681526020018373ffffffffffffffffffffffffffffffffffffffff1673ffffffffffffffffffffffffffffffffffffffff168152602001828152602001935050505060405180910390f35b34156103da57600080fd5b6103f4600480803561ffff169060200190919050506111ad565b005b341561040157600080fd5b610409611324565b604051808273ffffffffffffffffffffffffffffffffffffffff1673ffffffffffffffffffffffffffffffffffffffff16815260200191505060405180910390f35b341561045657600080fd5b61045e61134a565b604051808461ffff1661ffff1681526020018373ffffffffffffffffffffffffffffffffffffffff1673ffffffffffffffffffffffffffffffffffffffff168152602001828152602001935050505060405180910390f35b34156104c157600080fd5b6104ed600480803573ffffffffffffffffffffffffffffffffffffffff16906020019091905050611390565b005b34156104fa57600080fd5b6105026114ab565b604051808581526020018481526020018373ffffffffffffffffffffffffffffffffffffffff1673ffffffffffffffffffffffffffffffffffffffff16815260200182815260200194505050505060405180910390f35b341561056457600080fd5b61056c6114e9565b6040518082815260200191505060405180910390f35b341561058d57600080fd5b6105956114ef565b604051808473ffffffffffffffffffffffffffffffffffffffff1673ffffffffffffffffffffffffffffffffffffffff1681526020018373ffffffffffffffffffffffffffffffffffffffff1673ffffffffffffffffffffffffffffffffffffffff168152602001828152602001935050505060405180910390f35b341561061c57600080fd5b610624611547565b604051808273ffffffffffffffffffffffffffffffffffffffff1673ffffffffffffffffffffffffffffffffffffffff16815260200191505060405180910390f35b341561067157600080fd5b610687600480803590602001909190505061156c565b005b341561069457600080fd5b61069c61188e565b005b34156106a957600080fd5b6106d5600480803573ffffffffffffffffffffffffffffffffffffffff16906020019091905050611d4a565b005b34156106e257600080fd5b6106ea611ef7565b005b34156106f757600080fd5b6106ff611fc9565b005b341561070c57600080fd5b610738600480803573ffffffffffffffffffffffffffffffffffffffff169060200190919050506121ca565b005b341561074557600080fd5b61074d612377565b005b341561075a57600080fd5b6107a3600480803573ffffffffffffffffffffffffffffffffffffffff1690602001909190803590602001909190803590602001908201803590602001919091929050506125c0565b005b34156107b057600080fd5b6107b86125c5565b604051808273ffffffffffffffffffffffffffffffffffffffff1673ffffffffffffffffffffffffffffffffffffffff16815260200191505060405180910390f35b341561080557600080fd5b61081b60048080359060200190919050506125eb565b604051808573ffffffffffffffffffffffffffffffffffffffff1673ffffffffffffffffffffffffffffffffffffffff1681526020018481526020018373ffffffffffffffffffffffffffffffffffffffff1673ffffffffffffffffffffffffffffffffffffffff16815260200182815260200194505050505060405180910390f35b34156108a957600080fd5b6108d5600480803573ffffffffffffffffffffffffffffffffffffffff1690602001909190505061266a565b005b34156108e257600080fd5b6108ea6127bf565b604051808273ffffffffffffffffffffffffffffffffffffffff1673ffffffffffffffffffffffffffffffffffffffff16815260200191505060405180910390f35b60008060009054906101000a900473ffffffffffffffffffffffffffffffffffffffff1673ffffffffffffffffffffffffffffffffffffffff163373ffffffffffffffffffffffffffffffffffffffff1614151561098957600080fd5b8173ffffffffffffffffffffffffffffffffffffffff166370a08231306000604051602001526040518263ffffffff167c0100000000000000000000000000000000000000000000000000000000028152600401808273ffffffffffffffffffffffffffffffffffffffff1673ffffffffffffffffffffffffffffffffffffffff168152602001915050602060405180830381600087803b1515610a2c57600080fd5b6102c65a03f11515610a3d57600080fd5b505050604051805190509050610a956000809054906101000a900473ffffffffffffffffffffffffffffffffffffffff16828473ffffffffffffffffffffffffffffffffffffffff166127e59092919063ffffffff16565b5050565b600260009054906101000a900473ffffffffffffffffffffffffffffffffffffffff1681565b600080600160009054906101000a900473ffffffffffffffffffffffffffffffffffffffff1673ffffffffffffffffffffffffffffffffffffffff163373ffffffffffffffffffffffffffffffffffffffff16141515610b1e57600080fd5b600160009054906101000a900473ffffffffffffffffffffffffffffffffffffffff1673ffffffffffffffffffffffffffffffffffffffff16600a60020160009054906101000a900473ffffffffffffffffffffffffffffffffffffffff1673ffffffffffffffffffffffffffffffffffffffff16141515610b9f57600080fd5b43600a6003015411151515610bb357600080fd5b600a600001549150600a600101549050600a60008082016000905560018201600090556002820160006101000a81549073ffffffffffffffffffffffffffffffffffffffff021916905560038201600090555050600260009054906101000a900473ffffffffffffffffffffffffffffffffffffffff1673ffffffffffffffffffffffffffffffffffffffff166370df42e183836040518363ffffffff167c01000000000000000000000000000000000000000000000000000000000281526004018083815260200182815260200192505050600060405180830381600087803b1515610c9f57600080fd5b6102c65a03f11515610cb057600080fd5b5050505050565b610cbf6128b8565b600160009054906101000a900473ffffffffffffffffffffffffffffffffffffffff1673ffffffffffffffffffffffffffffffffffffffff163373ffffffffffffffffffffffffffffffffffffffff16141515610d1b57600080fd5b608060405190810160405280848152602001838152602001600160009054906101000a900473ffffffffffffffffffffffffffffffffffffffff1673ffffffffffffffffffffffffffffffffffffffff168152602001611680430181525090507f03051e39c12421e9f3b4c6bf2ef6ef14aff636a37ee698eac3e5d84a7d392300816040518082815260200191505060405180910390a180600a600082015181600001556020820151816001015560408201518160020160006101000a81548173ffffffffffffffffffffffffffffffffffffffff021916908373ffffffffffffffffffffffffffffffffffffffff16021790555060608201518160030155905050505050565b610e2a6128f7565b600160009054906101000a900473ffffffffffffffffffffffffffffffffffffffff1673ffffffffffffffffffffffffffffffffffffffff163373ffffffffffffffffffffffffffffffffffffffff16141515610e8657600080fd5b6080604051908101604052808473ffffffffffffffffffffffffffffffffffffffff168152602001838152602001600160009054906101000a900473ffffffffffffffffffffffffffffffffffffffff1673ffffffffffffffffffffffffffffffffffffffff168152602001611680430181525090507f1d071dfe5c24be4bb56ca52a7ff646f8c51e5917c9747834c1187c954238b60781600680549050604051808381526020018281526020019250505060405180910390a160068054806001018281610f54919061294c565b9160005260206000209060040201600083909190915060008201518160000160006101000a81548173ffffffffffffffffffffffffffffffffffffffff021916908373ffffffffffffffffffffffffffffffffffffffff1602179055506020820151816001015560408201518160020160006101000a81548173ffffffffffffffffffffffffffffffffffffffff021916908373ffffffffffffffffffffffffffffffffffffffff16021790555060608201518160030155505050505050565b600160009054906101000a900473ffffffffffffffffffffffffffffffffffffffff1673ffffffffffffffffffffffffffffffffffffffff163373ffffffffffffffffffffffffffffffffffffffff1614151561107057600080fd5b8273ffffffffffffffffffffffffffffffffffffffff1663efbd9ec283836040518363ffffffff167c0100000000000000000000000000000000000000000000000000000000028152600401808373ffffffffffffffffffffffffffffffffffffffff1673ffffffffffffffffffffffffffffffffffffffff1681526020018215151515815260200192505050600060405180830381600087803b151561111657600080fd5b6102c65a03f1151561112757600080fd5b505050505050565b600460009054906101000a900473ffffffffffffffffffffffffffffffffffffffff1681565b60078060000160009054906101000a900473ffffffffffffffffffffffffffffffffffffffff16908060010160009054906101000a900473ffffffffffffffffffffffffffffffffffffffff16908060020154905083565b6111b561297e565b600160009054906101000a900473ffffffffffffffffffffffffffffffffffffffff1673ffffffffffffffffffffffffffffffffffffffff163373ffffffffffffffffffffffffffffffffffffffff1614151561121157600080fd5b6060604051908101604052808361ffff168152602001600160009054906101000a900473ffffffffffffffffffffffffffffffffffffffff1673ffffffffffffffffffffffffffffffffffffffff168152602001611680430181525090507f20d8e3c008b2b68700626d2476becd76217ed66a75df552c93486d2482324be6816040518082815260200191505060405180910390a180600e60008201518160000160006101000a81548161ffff021916908361ffff16021790555060208201518160000160026101000a81548173ffffffffffffffffffffffffffffffffffffffff021916908373ffffffffffffffffffffffffffffffffffffffff160217905550604082015181600101559050505050565b600360009054906101000a900473ffffffffffffffffffffffffffffffffffffffff1681565b600e8060000160009054906101000a900461ffff16908060000160029054906101000a900473ffffffffffffffffffffffffffffffffffffffff16908060010154905083565b6000809054906101000a900473ffffffffffffffffffffffffffffffffffffffff1673ffffffffffffffffffffffffffffffffffffffff163373ffffffffffffffffffffffffffffffffffffffff161415156113eb57600080fd5b8073ffffffffffffffffffffffffffffffffffffffff16600160009054906101000a900473ffffffffffffffffffffffffffffffffffffffff1673ffffffffffffffffffffffffffffffffffffffff167f2931ebb3d190545dcf6801c37aa686b74f2e1000e753d0fac6e471a2aa5a621360405160405180910390a380600160006101000a81548173ffffffffffffffffffffffffffffffffffffffff021916908373ffffffffffffffffffffffffffffffffffffffff16021790555050565b600a8060000154908060010154908060020160009054906101000a900473ffffffffffffffffffffffffffffffffffffffff16908060030154905084565b61168081565b60108060000160009054906101000a900473ffffffffffffffffffffffffffffffffffffffff16908060010160009054906101000a900473ffffffffffffffffffffffffffffffffffffffff16908060020154905083565b6000809054906101000a900473ffffffffffffffffffffffffffffffffffffffff1681565b6115746128f7565b60008060068481548110151561158657fe5b9060005260206000209060040201608060405190810160405290816000820160009054906101000a900473ffffffffffffffffffffffffffffffffffffffff1673ffffffffffffffffffffffffffffffffffffffff1673ffffffffffffffffffffffffffffffffffffffff168152602001600182015481526020016002820160009054906101000a900473ffffffffffffffffffffffffffffffffffffffff1673ffffffffffffffffffffffffffffffffffffffff1673ffffffffffffffffffffffffffffffffffffffff1681526020016003820154815250509250600160009054906101000a900473ffffffffffffffffffffffffffffffffffffffff1673ffffffffffffffffffffffffffffffffffffffff16836040015173ffffffffffffffffffffffffffffffffffffffff161415156116c257600080fd5b438360600151111515156116d557600080fd5b3373ffffffffffffffffffffffffffffffffffffffff16836000015173ffffffffffffffffffffffffffffffffffffffff1614151561171357600080fd5b826000015191508260200151905060068481548110151561173057fe5b9060005260206000209060040201600080820160006101000a81549073ffffffffffffffffffffffffffffffffffffffff021916905560018201600090556002820160006101000a81549073ffffffffffffffffffffffffffffffffffffffff021916905560038201600090555050600260009054906101000a900473ffffffffffffffffffffffffffffffffffffffff1673ffffffffffffffffffffffffffffffffffffffff166340c10f1983836000604051602001526040518363ffffffff167c0100000000000000000000000000000000000000000000000000000000028152600401808373ffffffffffffffffffffffffffffffffffffffff1673ffffffffffffffffffffffffffffffffffffffff16815260200182815260200192505050602060405180830381600087803b151561186c57600080fd5b6102c65a03f1151561187d57600080fd5b505050604051805190505050505050565b6000600160009054906101000a900473ffffffffffffffffffffffffffffffffffffffff1673ffffffffffffffffffffffffffffffffffffffff16600760010160009054906101000a900473ffffffffffffffffffffffffffffffffffffffff1673ffffffffffffffffffffffffffffffffffffffff1614151561191157600080fd5b436007600201541115151561192557600080fd5b3373ffffffffffffffffffffffffffffffffffffffff16600760000160009054906101000a900473ffffffffffffffffffffffffffffffffffffffff1673ffffffffffffffffffffffffffffffffffffffff1614151561198457600080fd5b600760000160009054906101000a900473ffffffffffffffffffffffffffffffffffffffff1690506007600080820160006101000a81549073ffffffffffffffffffffffffffffffffffffffff02191690556001820160006101000a81549073ffffffffffffffffffffffffffffffffffffffff021916905560028201600090555050600260009054906101000a900473ffffffffffffffffffffffffffffffffffffffff1673ffffffffffffffffffffffffffffffffffffffff1663f2fde38b826040518263ffffffff167c0100000000000000000000000000000000000000000000000000000000028152600401808273ffffffffffffffffffffffffffffffffffffffff1673ffffffffffffffffffffffffffffffffffffffff168152602001915050600060405180830381600087803b1515611ac357600080fd5b6102c65a03f11515611ad457600080fd5b505050600360009054906101000a900473ffffffffffffffffffffffffffffffffffffffff1673ffffffffffffffffffffffffffffffffffffffff1663f2fde38b826040518263ffffffff167c0100000000000000000000000000000000000000000000000000000000028152600401808273ffffffffffffffffffffffffffffffffffffffff1673ffffffffffffffffffffffffffffffffffffffff168152602001915050600060405180830381600087803b1515611b9357600080fd5b6102c65a03f11515611ba457600080fd5b505050600460009054906101000a900473ffffffffffffffffffffffffffffffffffffffff1673ffffffffffffffffffffffffffffffffffffffff1663f2fde38b826040518263ffffffff167c0100000000000000000000000000000000000000000000000000000000028152600401808273ffffffffffffffffffffffffffffffffffffffff1673ffffffffffffffffffffffffffffffffffffffff168152602001915050600060405180830381600087803b1515611c6357600080fd5b6102c65a03f11515611c7457600080fd5b505050600560009054906101000a900473ffffffffffffffffffffffffffffffffffffffff1673ffffffffffffffffffffffffffffffffffffffff1663f2fde38b826040518263ffffffff167c0100000000000000000000000000000000000000000000000000000000028152600401808273ffffffffffffffffffffffffffffffffffffffff1673ffffffffffffffffffffffffffffffffffffffff168152602001915050600060405180830381600087803b1515611d3357600080fd5b6102c65a03f11515611d4457600080fd5b50505050565b611d526129ba565b600160009054906101000a900473ffffffffffffffffffffffffffffffffffffffff1673ffffffffffffffffffffffffffffffffffffffff163373ffffffffffffffffffffffffffffffffffffffff16141515611dae57600080fd5b6060604051908101604052808373ffffffffffffffffffffffffffffffffffffffff168152602001600160009054906101000a900473ffffffffffffffffffffffffffffffffffffffff1673ffffffffffffffffffffffffffffffffffffffff168152602001611680430181525090507f354880351eed16b35bb1c79c02ad9138f1f5f88686e6ea465a363851532a0a2c816040518082815260200191505060405180910390a180600760008201518160000160006101000a81548173ffffffffffffffffffffffffffffffffffffffff021916908373ffffffffffffffffffffffffffffffffffffffff16021790555060208201518160010160006101000a81548173ffffffffffffffffffffffffffffffffffffffff021916908373ffffffffffffffffffffffffffffffffffffffff160217905550604082015181600201559050505050565b6000809054906101000a900473ffffffffffffffffffffffffffffffffffffffff1673ffffffffffffffffffffffffffffffffffffffff163373ffffffffffffffffffffffffffffffffffffffff16141515611f5257600080fd5b6000809054906101000a900473ffffffffffffffffffffffffffffffffffffffff1673ffffffffffffffffffffffffffffffffffffffff166108fc3073ffffffffffffffffffffffffffffffffffffffff16319081150290604051600060405180830381858888f193505050501515611fc757fe5b565b6000600160009054906101000a900473ffffffffffffffffffffffffffffffffffffffff1673ffffffffffffffffffffffffffffffffffffffff163373ffffffffffffffffffffffffffffffffffffffff1614151561202757600080fd5b600160009054906101000a900473ffffffffffffffffffffffffffffffffffffffff1673ffffffffffffffffffffffffffffffffffffffff16600a60020160009054906101000a900473ffffffffffffffffffffffffffffffffffffffff1673ffffffffffffffffffffffffffffffffffffffff161415156120a857600080fd5b43600a60030154111515156120bc57600080fd5b600e60000160009054906101000a900461ffff169050600e600080820160006101000a81549061ffff02191690556000820160026101000a81549073ffffffffffffffffffffffffffffffffffffffff021916905560018201600090555050600260009054906101000a900473ffffffffffffffffffffffffffffffffffffffff1673ffffffffffffffffffffffffffffffffffffffff1663678c6282826040518263ffffffff167c0100000000000000000000000000000000000000000000000000000000028152600401808261ffff1661ffff168152602001915050600060405180830381600087803b15156121b357600080fd5b6102c65a03f115156121c457600080fd5b50505050565b6121d2612a08565b600160009054906101000a900473ffffffffffffffffffffffffffffffffffffffff1673ffffffffffffffffffffffffffffffffffffffff163373ffffffffffffffffffffffffffffffffffffffff1614151561222e57600080fd5b6060604051908101604052808373ffffffffffffffffffffffffffffffffffffffff168152602001600160009054906101000a900473ffffffffffffffffffffffffffffffffffffffff1673ffffffffffffffffffffffffffffffffffffffff168152602001611680430181525090507fc400bc7bae8b383f83f5e1dfcb5c35d9704618126c50eb74bbd25830f5e5f054816040518082815260200191505060405180910390a180601060008201518160000160006101000a81548173ffffffffffffffffffffffffffffffffffffffff021916908373ffffffffffffffffffffffffffffffffffffffff16021790555060208201518160010160006101000a81548173ffffffffffffffffffffffffffffffffffffffff021916908373ffffffffffffffffffffffffffffffffffffffff160217905550604082015181600201559050505050565b6000600160009054906101000a900473ffffffffffffffffffffffffffffffffffffffff1673ffffffffffffffffffffffffffffffffffffffff163373ffffffffffffffffffffffffffffffffffffffff161415156123d557600080fd5b600160009054906101000a900473ffffffffffffffffffffffffffffffffffffffff1673ffffffffffffffffffffffffffffffffffffffff16601060010160009054906101000a900473ffffffffffffffffffffffffffffffffffffffff1673ffffffffffffffffffffffffffffffffffffffff1614151561245657600080fd5b436010600201541115151561246a57600080fd5b601060000160009054906101000a900473ffffffffffffffffffffffffffffffffffffffff1690506010600080820160006101000a81549073ffffffffffffffffffffffffffffffffffffffff02191690556001820160006101000a81549073ffffffffffffffffffffffffffffffffffffffff021916905560028201600090555050600260009054906101000a900473ffffffffffffffffffffffffffffffffffffffff1673ffffffffffffffffffffffffffffffffffffffff1663beaf56a6826040518263ffffffff167c0100000000000000000000000000000000000000000000000000000000028152600401808273ffffffffffffffffffffffffffffffffffffffff1673ffffffffffffffffffffffffffffffffffffffff168152602001915050600060405180830381600087803b15156125a957600080fd5b6102c65a03f115156125ba57600080fd5b50505050565b600080fd5b600560009054906101000a900473ffffffffffffffffffffffffffffffffffffffff1681565b6006818154811015156125fa57fe5b90600052602060002090600402016000915090508060000160009054906101000a900473ffffffffffffffffffffffffffffffffffffffff16908060010154908060020160009054906101000a900473ffffffffffffffffffffffffffffffffffffffff16908060030154905084565b6000809054906101000a900473ffffffffffffffffffffffffffffffffffffffff1673ffffffffffffffffffffffffffffffffffffffff163373ffffffffffffffffffffffffffffffffffffffff161415156126c557600080fd5b600073ffffffffffffffffffffffffffffffffffffffff168173ffffffffffffffffffffffffffffffffffffffff161415151561270157600080fd5b8073ffffffffffffffffffffffffffffffffffffffff166000809054906101000a900473ffffffffffffffffffffffffffffffffffffffff1673ffffffffffffffffffffffffffffffffffffffff167f8be0079c531659141344cd1fd0a4f28419497f9722a3daafe3b4186f6b6457e060405160405180910390a3806000806101000a81548173ffffffffffffffffffffffffffffffffffffffff021916908373ffffffffffffffffffffffffffffffffffffffff16021790555050565b600160009054906101000a900473ffffffffffffffffffffffffffffffffffffffff1681565b8273ffffffffffffffffffffffffffffffffffffffff1663a9059cbb83836000604051602001526040518363ffffffff167c0100000000000000000000000000000000000000000000000000000000028152600401808373ffffffffffffffffffffffffffffffffffffffff1673ffffffffffffffffffffffffffffffffffffffff16815260200182815260200192505050602060405180830381600087803b151561289057600080fd5b6102c65a03f115156128a157600080fd5b5050506040518051905015156128b357fe5b505050565b6080604051908101604052806000815260200160008152602001600073ffffffffffffffffffffffffffffffffffffffff168152602001600081525090565b608060405190810160405280600073ffffffffffffffffffffffffffffffffffffffff16815260200160008152602001600073ffffffffffffffffffffffffffffffffffffffff168152602001600081525090565b815481835581811511612979576004028160040283600052602060002091820191016129789190612a56565b5b505050565b606060405190810160405280600061ffff168152602001600073ffffffffffffffffffffffffffffffffffffffff168152602001600081525090565b606060405190810160405280600073ffffffffffffffffffffffffffffffffffffffff168152602001600073ffffffffffffffffffffffffffffffffffffffff168152602001600081525090565b606060405190810160405280600073ffffffffffffffffffffffffffffffffffffffff168152602001600073ffffffffffffffffffffffffffffffffffffffff168152602001600081525090565b612ad091905b80821115612acc57600080820160006101000a81549073ffffffffffffffffffffffffffffffffffffffff021916905560018201600090556002820160006101000a81549073ffffffffffffffffffffffffffffffffffffffff0219169055600382016000905550600401612a5c565b5090565b905600a165627a7a723058202c7252acbc2744b111a893a7fec9a3a70078927f055505c67bb8c8446be883f00029",
  "source": "pragma solidity ^0.4.18;\n\nimport 'zeppelin-solidity/contracts/ownership/HasNoEther.sol';\nimport 'zeppelin-solidity/contracts/ownership/HasNoTokens.sol';\nimport 'zeppelin-solidity/contracts/ownership/Ownable.sol';\nimport './TrueUSD.sol';\n\n// The TimeLockedAdmin contract is intended to be the initial Owner of the TrueUSD\n// contract and TrueUSD's AddressLists. It splits ownership into two accounts: an \"admin\" account and an\n// \"owner\" account. The admin of TimeLockedAdmin can initiate two kinds of\n// transactions: minting TrueUSD, and transferring ownership of the TrueUSD\n// contract to a new owner. However, both of these transactions must be stored\n// for ~1 day's worth of blocks first before they can be forwarded to the\n// TrueUSD contract. In the event that the admin account is compromised, this\n// setup allows the owner of TimeLockedAdmin (which can be stored extremely\n// securely since it is never used in normal operation) to replace the admin.\n// Once a day has passed, all mint and ownership transfer requests can be\n// finalized by the beneficiary (the token recipient or the new owner,\n// respectively). Requests initiated by an admin that has since been deposed\n// cannot be finalized. The admin is also able to update TrueUSD's AddressLists\n// (without a day's delay).\ncontract TimeLockedAdmin is Ownable, HasNoEther, HasNoTokens {\n\n    uint public constant blocksDelay = 24*60*60/15; // 24 hours, assuming a 15 second blocktime\n\n    struct MintOperation {\n        address to;\n        uint256 amount;\n        address admin;\n        uint deferBlock;\n    }\n\n    struct TransferOwnershipOperation {\n        address newOwner;\n        address admin;\n        uint deferBlock;\n    }\n\n    struct ChangeBurnBoundsOperation {\n        uint newMin;\n        uint newMax;\n        address admin;\n        uint deferBlock;\n    }\n\n    struct ChangeInsuranceFeeBipsOperation {\n        uint16 newBips;\n        address admin;\n        uint deferBlock;\n    }\n\n    struct ChangeInsurerOperation {\n        address newInsurer;\n        address admin;\n        uint deferBlock;\n    }\n\n    address public admin;\n    TrueUSD public child;\n    AddressList public canBurnWhiteList;\n    AddressList public canReceiveMintWhitelist;\n    AddressList public blackList;\n    MintOperation[] public mintOperations;\n    TransferOwnershipOperation public transferOwnershipOperation;\n    ChangeBurnBoundsOperation public changeBurnBoundsOperation;\n    ChangeInsuranceFeeBipsOperation public changeInsuranceFeeBipsOperation;\n    ChangeInsurerOperation public changeInsurerOperation;\n\n    // starts with no admin\n    function TimeLockedAdmin(address _child, address _canBurnWhiteList, address _canReceiveMintWhitelist, address _blackList) public {\n        child = TrueUSD(_child);\n        canBurnWhiteList = AddressList(_canBurnWhiteList);\n        canReceiveMintWhitelist = AddressList(_canReceiveMintWhitelist);\n        blackList = AddressList(_blackList);\n    }\n\n    event MintOperationEvent(MintOperation op, uint opIndex);\n    event TransferOwnershipOperationEvent(TransferOwnershipOperation op);\n    event ChangeBurnBoundsOperationEvent(ChangeBurnBoundsOperation op);\n    event ChangeInsuranceFeeBipsOperationEvent(ChangeInsuranceFeeBipsOperation op);\n    event ChangeInsurerOperationEvent(ChangeInsurerOperation op);\n    event AdminshipTransferred(address indexed previousAdmin, address indexed newAdmin);\n\n    // admin initiates a request to mint _amount TrueUSD for account _to\n    function requestMint(address _to, uint256 _amount) public {\n        require(msg.sender == admin);\n        MintOperation memory op = MintOperation(_to, _amount, admin, block.number + blocksDelay);\n        MintOperationEvent(op, mintOperations.length);\n        mintOperations.push(op);\n    }\n\n    // admin initiates a request to transfer ownership of the TrueUSD contract and all AddressLists to newOwner.\n    // Can be used e.g. to upgrade this TimeLockedAdmin contract.\n    function requestTransferOwnership(address newOwner) public {\n        require(msg.sender == admin);\n        TransferOwnershipOperation memory op = TransferOwnershipOperation(newOwner, admin, block.number + blocksDelay);\n        TransferOwnershipOperationEvent(op);\n        transferOwnershipOperation = op;\n    }\n\n    // admin initiates a request that the minimum and maximum amounts that any TrueUSD user can\n    // burn become newMin and newMax\n    function requestChangeBurnBounds(uint newMin, uint newMax) public {\n        require(msg.sender == admin);\n        ChangeBurnBoundsOperation memory op = ChangeBurnBoundsOperation(newMin, newMax, admin, block.number + blocksDelay);\n        ChangeBurnBoundsOperationEvent(op);\n        changeBurnBoundsOperation = op;\n    }\n\n    // admin initiates a request that the insurance fee be changed to newBips bips\n    function requestChangeInsuranceFeeBips(uint16 newBips) public {\n        require(msg.sender == admin);\n        ChangeInsuranceFeeBipsOperation memory op = ChangeInsuranceFeeBipsOperation(newBips, admin, block.number + blocksDelay);\n        ChangeInsuranceFeeBipsOperationEvent(op);\n        changeInsuranceFeeBipsOperation = op;\n    }\n\n    // admin initiates a request that the recipient of the insurance fee be changed to newInsurer\n    function requestChangeInsurer(address newInsurer) public {\n        require(msg.sender == admin);\n        ChangeInsurerOperation memory op = ChangeInsurerOperation(newInsurer, admin, block.number + blocksDelay);\n        ChangeInsurerOperationEvent(op);\n        changeInsurerOperation = op;\n    }\n\n    // after a day, beneficiary of a mint request finalizes it by providing the\n    // index of the request (visible in the MintOperationEvent accompanying the original request)\n    function finalizeMint(uint index) public {\n        MintOperation memory op = mintOperations[index];\n        require(op.admin == admin); //checks that the requester's adminship has not been revoked\n        require(op.deferBlock <= block.number); //checks that enough time has elapsed\n        require(op.to == msg.sender); //only the recipient of the funds can finalize\n        address to = op.to;\n        uint256 amount = op.amount;\n        delete mintOperations[index];\n        child.mint(to, amount);\n    }\n\n    // after a day, prospective new owner of TrueUSD finalizes the ownership change\n    function finalizeTransferOwnership() public {\n        require(transferOwnershipOperation.admin == admin);\n        require(transferOwnershipOperation.deferBlock <= block.number);\n        require(transferOwnershipOperation.newOwner == msg.sender);\n        address newOwner = transferOwnershipOperation.newOwner;\n        delete transferOwnershipOperation;\n        child.transferOwnership(newOwner);\n        canBurnWhiteList.transferOwnership(newOwner);\n        canReceiveMintWhitelist.transferOwnership(newOwner);\n        blackList.transferOwnership(newOwner);\n    }\n\n    // after a day, admin finalizes the burn bounds change\n    function finalizeChangeBurnBounds() public {\n        require(msg.sender == admin);\n        require(changeBurnBoundsOperation.admin == admin);\n        require(changeBurnBoundsOperation.deferBlock <= block.number);\n        uint newMin = changeBurnBoundsOperation.newMin;\n        uint newMax = changeBurnBoundsOperation.newMax;\n        delete changeBurnBoundsOperation;\n        child.changeBurnBounds(newMin, newMax);\n    }\n\n    // after a day, admin finalizes the insurance fee change\n    function finalizeChangeInsuranceFeeBips() public {\n        require(msg.sender == admin);\n        require(changeBurnBoundsOperation.admin == admin);\n        require(changeBurnBoundsOperation.deferBlock <= block.number);\n        uint16 newBips = changeInsuranceFeeBipsOperation.newBips;\n        delete changeInsuranceFeeBipsOperation;\n        child.changeInsuranceFee(newBips);\n    }\n\n    // after a day, admin finalizes the insurance fees recipient change\n    function finalizeChangeInsurer() public {\n        require(msg.sender == admin);\n        require(changeInsurerOperation.admin == admin);\n        require(changeInsurerOperation.deferBlock <= block.number);\n        address newInsurer = changeInsurerOperation.newInsurer;\n        delete changeInsurerOperation;\n        child.changeInsurer(newInsurer);\n    }\n\n    // Owner of this contract (immediately) replaces the current admin with newAdmin\n    function transferAdminship(address newAdmin) public onlyOwner {\n        AdminshipTransferred(admin, newAdmin);\n        admin = newAdmin;\n    }\n\n    function updateList(address list, address entry, bool flag) public {\n        require(msg.sender == admin);\n        AddressList(list).changeList(entry, flag);\n    }\n}\n",
  "sourcePath": "/Users/benjamin/winTheGameInc/trueUSD/contracts/TimeLockedAdmin.sol",
  "compiler": {
    "name": "solc",
    "version": "0.4.18+commit.9cf6e910.Emscripten.clang"
  },
  "schemaVersion": "1.0.1",
  "updatedAt": "2018-01-18T01:25:09.522Z"
}